:020000040800F2
:10400000FFFF0120F5A100089B7200089D720008C7
:10401000B5730008B7730008B9730008000000000A
:104020000000000000000000000000009D64000887
:10403000BB73000800000000096500088D720008CD
:1040400039A2000839A2000839A2000839A20008E4
:1040500039A2000839A2000839A2000839A20008D4
:1040600039A2000839A200088DE50008ADB50008A6
:1040700039A2000815B60008E1B5000809B6000825
:10408000BD730008A1B5000839A2000839A20008D4
:1040900039A2000839A2000839A2000839A2000894
:1040A00039A2000839A2000839A2000839A2000884
:1040B00039A2000839A2000839A2000885B5000815
:1040C00091B50008B9B50008C5B5000839A20008C7
:1040D00039A2000839A2000891E5000839A20008B9
:1040E0006772000839A2000839A2000839A2000846
:1040F00039A2000839A2000839A20008D5B5000885
:1041000039A2000839A2000839A2000839A2000823
:1041100095E5000839A2000839A2000839A2000874
:1041200039A2000839A2000839A2000839A2000803
:1041300039A2000839A2000839A2000839A20008F3
:1041400039A2000839A2000839A200085DC200089F
:1041500039A2000839A200089DE5000899E5000889
:10416000EDB50008F9B5000839A2000839A2000829
:1041700039A2000839A2000839A2000839A20008B3
:0841800039A2000839A2000871
:1041880081F0004102E000BF83F0004330B54FEA00
:1041980041044FEA430594EA050F08BF90EA020F6D
:1041A8001FBF54EA000C55EA020C7FEA645C7FEA00
:1041B800655C00F0E2804FEA5454D4EB5555B8BF23
:1041C8006D420CDD2C4480EA020281EA030382EA94
:1041D800000083EA010180EA020281EA0303362D26
:1041E80088BF30BD11F0004F4FEA01314FF4801CF9
:1041F8004CEA113102D0404261EB410113F0004F0B
:104208004FEA03334CEA133302D0524263EB4303C1
:1042180094EA050F00F0A780A4F10104D5F1200E5F
:104228000DDB02FA0EFC22FA05F2801841F10001BA
:1042380003FA0EF2801843FA05F359410EE0A5F18E
:1042480020050EF1200E012A03FA0EFC28BF4CF0BF
:10425800020C43FA05F3C01851EBE37101F0004575
:1042680007D54FF0000EDCF1000C7EEB00006EEB82
:104278000101B1F5801F1BD3B1F5001F0CD349080C
:104288005FEA30004FEA3C0C04F101044FEA445263
:1042980012F5800F80F09A80BCF1004F08BF5FEAEA
:1042A800500C50F1000041EB045141EA050130BDCA
:1042B8005FEA4C0C404141EB010111F4801FA4F16D
:1042C8000104E9D191F0000F04BF01460020B1FAC2
:1042D80081F308BF2033A3F10B03B3F120020CDAFA
:1042E8000C3208DD02F1140CC2F10C0201FA0CF0D8
:1042F80021FA02F10CE002F11402D8BFC2F1200C3D
:1043080001FA02F120FA0CFCDCBF41EA0C019040F2
:10431800E41AA2BF01EB0451294330BD6FEA04043B
:104328001F3C1CDA0C340EDC04F11404C4F1200226
:1043380020FA04F001FA02F340EA030021FA04F338
:1043480045EA030130BDC4F10C04C4F1200220FA8F
:1043580002F001FA04F340EA0300294630BD21FACD
:1043680004F0294630BD94F0000F83F4801306BF93
:1043780081F480110134013D4EE77FEA645C18BF87
:104388007FEA655C29D094EA050F08BF90EA020F1E
:1043980005D054EA000C04BF1946104630BD91EA16
:1043A800030F1EBF0021002030BD5FEA545C05D119
:1043B8004000494128BF41F0004130BD14F5800458
:1043C8003CBF01F5801130BD01F0004545F0FE41CC
:1043D80041F470014FF0000030BD7FEA645C1ABF01
:1043E800194610467FEA655C1CBF0B46024650EA38
:1043F800013406BF52EA033591EA030F41F4002164
:1044080030BD00BF90F0000F04BF0021704730B5E9
:104418004FF4806404F132044FF000054FF00001BE
:1044280050E700BF90F0000F04BF0021704730B57F
:104438004FF4806404F1320410F0004548BF404254
:104448004FF000013EE700BF42004FEAE2014FEAA9
:1044580031014FEA02701FBF12F07F4393F07F4F84
:1044680081F06051704792F0000F14BF93F07F4FB6
:10447800704730B54FF4607401F0004521F00041F9
:1044880020E700BF50EA010208BF704730B54FF07F
:1044980000050AE050EA010208BF704730B511F084
:1044A800004502D5404261EB41014FF4806404F1BC
:1044B80032045FEA915C3FF4DCAE4FF003025FEA3E
:1044C800DC0C18BF03325FEADC0C18BF033202EBC6
:1044D800DC02C2F1200300FA03FC20FA02F001FA20
:1044E80003FE40EA0E0021FA02F11444C1E600BFBF
:1044F80070B54FF0FF0C4CF4E06C1CEA11541DBF72
:104508001CEA135594EA0C0F95EA0C0F00F0DEF83C
:104518002C4481EA030621EA4C5123EA4C5350EA21
:10452800013518BF52EA033541F4801143F4801372
:1045380038D0A0FB02CE4FF00005E1FB02E506F003
:104548000042E0FB03E54FF00006E1FB03569CF058
:10455800000F18BF4EF0010EA4F1FF04B6F5007F5E
:1045680064F5407404D25FEA4E0E6D4146EB0606D0
:1045780042EAC62141EA55514FEAC52040EA5E5059
:104588004FEACE2EB4F1FD0C88BFBCF5E06F1ED803
:10459800BEF1004F08BF5FEA500E50F1000041EB3A
:1045A800045170BD06F0004646EA010140EA0200E7
:1045B80081EA0301B4EB5C04C2BFD4EB0C0541EA09
:1045C800045170BD41F480114FF0000E013C00F31E
:1045D800AB8014F1360FDEBF002001F0004170BD42
:1045E800C4F10004203C35DA0C341BDC04F114045B
:1045F800C4F1200500FA05F320FA04F001FA05F2E7
:1046080040EA020001F0004221F0004110EBD370B3
:1046180021FA04F642EB06015EEA430E08BF20EADF
:10462800D37070BDC4F10C04C4F1200500FA04F382
:1046380020FA05F001FA04F240EA020001F0004114
:1046480010EBD37041F100015EEA430E08BF20EA87
:10465800D37070BDC4F1200500FA05F24EEA020ECF
:1046680020FA04F301FA05F243EA020321FA04F0FE
:1046780001F0004121FA04F220EA020000EBD370B5
:104688005EEA430E08BF20EAD37070BD94F0000FB5
:104698000FD101F00046400041EB010111F4801FE9
:1046A80008BF013CF7D041EA060195F0000F18BF9A
:1046B800704703F00046520043EB030313F4801FD6
:1046C80008BF013DF7D043EA0603704794EA0C0F90
:1046D8000CEA135518BF95EA0C0F0CD050EA4106A6
:1046E80018BF52EA4306D1D181EA030101F0004123
:1046F8004FF0000070BD50EA410606BF104619464B
:1047080052EA430619D094EA0C0F02D150EA013656
:1047180013D195EA0C0F05D152EA03361CBF104697
:1047280019460AD181EA030101F0004141F0FE4136
:1047380041F470014FF0000070BD41F0FE4141F4BA
:10474800780170BD70B54FF0FF0C4CF4E06C1CEABA
:1047580011541DBF1CEA135594EA0C0F95EA0C0F6F
:1047680000F0A7F8A4EB050481EA030E52EA03352A
:104778004FEA013100F088804FEA03334FF080554B
:1047880045EA131343EA12634FEA022245EA111578
:1047980045EA10654FEA00260EF000419D4208BF29
:1047A800964244F1FD0404F5407402D25B084FEAD6
:1047B8003202B61A65EB03055B084FEA32024FF482
:1047C80080104FF4002CB6EB020E75EB030E22BFDF
:1047D800B61A754640EA0C005B084FEA3202B6EB9F
:1047E800020E75EB030E22BFB61A754640EA5C004E
:1047F8005B084FEA3202B6EB020E75EB030E22BFDE
:10480800B61A754640EA9C005B084FEA3202B6EBDE
:10481800020E75EB030E22BFB61A754640EADC009D
:1048280055EA060E18D04FEA051545EA16754FEAFF
:1048380006164FEAC30343EA52734FEAC2025FEA1D
:104848001C1CC0D111F4801F0BD141EA00014FF0AC
:1048580000004FF0004CB6E711F4801F04BF01437D
:104868000020B4F1FD0C88BFBCF5E06F3FF6AFAE99
:10487800B5EB030C04BFB6EB020C5FEA500C50F129
:10488800000041EB045170BD0EF0004E4EEA1131AC
:1048980014EB5C04C2BFD4EB0C0541EA045170BDB3
:1048A80041F480114FF0000E013C90E645EA060EF7
:1048B8008DE60CEA135594EA0C0F08BF95EA0C0F25
:1048C8003FF43BAF94EA0C0F0AD150EA01347FF46D
:1048D80034AF95EA0C0F7FF425AF104619462CE744
:1048E80095EA0C0F06D152EA03353FF4FDAE1046A7
:1048F800194622E750EA410618BF52EA43067FF4F8
:10490800C5AE50EA41047FF40DAF52EA43057FF487
:10491800EBAE12E74FF0FF3C06E000BF4FF0010C92
:1049280002E000BF4FF0010C4DF804CD4FEA410CF6
:104938007FEA6C5C4FEA430C18BF7FEA6C5C1BD0C3
:1049480001B050EA410C0CBF52EA430C91EA030F44
:1049580002BF90EA020F0020704710F1000F91EAA1
:10496800030F58BF994208BF90422CBFD8176FEA6F
:10497800E37040F0010070474FEA410C7FEA6C5C3D
:1049880002D150EA013C07D14FEA430C7FEA6C5C44
:10499800D6D152EA033CD3D05DF8040B704700BF70
:1049A8008446104662468C461946634600E000BFBE
:1049B80001B5FFF7B7FF002848BF10F1000F01BD90
:1049C8004DF808EDFFF7F4FF0CBF012000205DF85B
:1049D80008FB00BF4DF808EDFFF7EAFF34BF0120E0
:1049E80000205DF808FB00BF4DF808EDFFF7E0FF79
:1049F80094BF012000205DF808FB00BF4DF808EDCA
:104A0800FFF7CEFF94BF012000205DF808FB00BF30
:104A18004DF808EDFFF7C4FF34BF012000205DF812
:104A280008FB00BF4FEA4102B2F1E04324BFB3F5EF
:104A3800001CDCF1FE5C0DD901F0004C4FEAC0020D
:104A48004CEA5070B2F1004F40EB830008BF20F0F1
:104A58000100704711F0804F21D113F13872BCBFAB
:104A680001F00040704741F480114FEA5252C2F100
:104A78001802C2F1200C10FA0CF320FA02F018BF49
:104A880040F001004FEAC1234FEAD32303FA0CFC9C
:104A980040EA0C0023FA02F34FEA4303CCE77FEA2B
:104AA800625307D150EA01331EBF4FF0FE4040F475
:104AB8004000704701F0004040F0FE4040F4000024
:104AC800704700BF7BB972B90029BEBF00204FF004
:104AD800004106E008BF00281CBF6FF000414FF0FE
:104AE800FF3000F03BB882B0EC462DE9005000F0F2
:104AF80005F8DDF804E002B00CBC70472DE9F04180
:104B0800069C154606460F46984600F029F805FB10
:104B180001F300FB0838A5FB0023B21A434467EBF6
:104B28000303C4E90023BDE8F08100BF2DE9F0418B
:104B3800069C904606460F461D4600F05FF900FBAE
:104B480005F5A0FB082308FB0155B21A2B4467EBB7
:104B58000303C4E90023BDE8F08100BF704700BF2C
:104B680000292DE9F043C0F2A6800026002BC0F2F0
:104B78009C80884694469E46154604460F46002B60
:104B88003DD18A4259D9B2FA82F33BB1C3F120022E
:104B98009F4020FA02F29D4017439C40290C220CAA
:104BA800B7FBF1FEA8B201FB1E7742EA074700FBFC
:104BB8000EF3BB420AD97F190EF1FF3280F005814E
:104BC800BB4240F20281AEF1020E2F44FF1AA4B29A
:104BD800B7FBF1F301FB137744EA074700FB03F047
:104BE800B84208D97F1903F1FF3280F0F080B8424B
:104BF80040F2ED80023B43EA0E43002203E08B4281
:104C08000FD900221346341C18BF012460424FF00C
:104C1800000565EB45015840514000196941BDE860
:104C2800F083B3FA83F2002A40F086808B4202D3E5
:104C3800844500F2DB800123E5E712B90123B3FBC9
:104C4800F2F5B5FA85F000283BD1781B4FEA154EEE
:104C58001FFA85FC0122B0FBFEF8210C0EFB180799
:104C680041EA07470CFB08F3BB4207D97F1908F153
:104C7800FF3102D2BB4200F2BD808846FF1AA4B2BF
:104C8800B7FBFEF30EFB137744EA07470CFB03FC64
:104C9800BC4507D97F1903F1FF3102D2BC4500F2A8
:104CA800A7800B4643EA0843ADE752426FEA06067F
:104CB80063EB43035DE7404261EB41014FF0FF3690
:104CC80054E7C0F1200224FA02F107FA00F3854004
:104CD8004FEA154ED7401943B7FBFEF20B0C0EFBFB
:104CE80012771FFA85FC43EA07430CFB02F79F4241
:104CF80004FA00F407D95B1902F1FF3074D29F421D
:104D080072D9023A2B44DF1B89B2B7FBFEF80EFBBF
:104D1800187341EA03430CFB08F79F4208D95B1953
:104D280008F1FF315CD29F425AD9A8F102082B44FE
:104D3800D81B48EA02428EE7C2F120032CFA03F19D
:104D48000EFA02FE20FA03F741EA0E0E08FA02F004
:104D580028FA03F14FEA1E453843B1FBF5F8030C76
:104D680005FB18111FFA8EF743EA014107FB08F308
:104D78008B420CFA02FC09D911EB0E0108F1FF393C
:104D880030D28B422ED9A8F102087144C91A80B2D8
:104D9800B1FBF5F305FB131140EA014107FB03F7EB
:104DA8008F4208D911EB0E0103F1FF3016D28F4262
:104DB80014D9023B714443EA0843C91BA3FB0C897D
:104DC800494509D305D000221DE79646FEE613465D
:104DD80011E794404445F6D2013BF4E70346EAE77D
:104DE8008846A5E7C846D1E702468CE713460AE796
:104DF800023B57E7A8F102082F443FE72DE9F041AD
:104E0800002B44D18A42154604464FD9B2FA82F79C
:104E18000E464FB1C7F12003B94020FA03F602FA53
:104E280007F50E4300FA07F44FEA154E230CB6FBBC
:104E3800FEF0AFB20EFB106143EA014307FB00F13D
:104E4800994209D95B1900F1FF3280F0EC80994250
:104E580040F2E98002382B445A1AA4B2B2FBFEF39E
:104E68000EFB132244EA024207FB03F7974208D9D4
:104E7800521903F1FF3180F0D880974240F2D58073
:104E8800023B43EA004000263146BDE8F0818B42F0
:104E980047D8B3FA83F6002E48D18B4202D3824218
:104EA80000F2CD8001203146BDE8F08112B901251C
:104EB800B5FBF2F5B5FA85F8B8F1000F77D14A1BC2
:104EC8004FEA154EAFB20126B2FBFEF0230C0EFBE3
:104ED800102143EA014107FB00F38B4207D9491926
:104EE80000F1FF3202D28B4200F2BA801046C91A92
:104EF800A4B2B1FBFEF30EFB131144EA014407FB15
:104F080003F7A74208D9641903F1FF3280F08F80B4
:104F1800A74240F28C80023B43EA00403146BDE89C
:104F2800F081002630463146BDE8F081C6F1200404
:104F380022FA04F5B3402B4320FA04FC01FA06F7E1
:104F480021FA04F54FEA134E4CEA0707B5FBFEF8C1
:104F5800390C0EFB18551FFA83FC41EA05450CFB7A
:104F680008F1A94202FA06F204D9ED1808F1FF3453
:104F780067D3A0466D1ABFB2B5FBFEF40EFB1455FD
:104F880047EA05410CFB04FC8C4504D9C91804F117
:104F9800FF355CD32C4644EA0844CCEB0101A4FB62
:104FA8000223994248D344D0204600266CE7C8F132
:104FB800200401FA08F305FA08F520FA04F7E1409D
:104FC8004FEA154E1F43B1FBFEF63A0C0EFB1611C5
:104FD8001FFA85FC42EA01430CFB06F29A4200FAEA
:104FE80008F407D95B1906F1FF3137D29A4235D94F
:104FF800023E2B449B1ABFB2B3FBFEF00EFB1033EC
:1050080047EA03430CFB00F1994207D95B1900F109
:10501800FF3221D299421FD902382B445A1A40EA4A
:105028000646674650E7104616E70B4629E713463B
:1050380072E7B0409042B7D2601E002624E730469F
:1050480022E7A94295D9A8F102081D4492E78C45A8
:10505800A0D9023C19449EE71046DFE70E46C9E78F
:105068000238294443E700BF10F8012B11F8013B2F
:10507800012A28BF9A42F7D0D01A704700F10803D6
:105088004FF0FF3282604360C36003610023036016
:10509800704700230361704743685A684A60426852
:1050A8008A605A68916059604160086103680133F9
:1050B800036070470A68531C10B501D1036907E003
:1050C80000F108035C682468944201D85B68F9E73A
:1050D8005A684A6091608B605960086103680133BF
:1050E800036010BD436882689A60836842685A60AA
:1050F80003695A68824204BF82685A6000220261CA
:105108001A68013A1A601868704708B502F0C6FEB6
:10511800FCE7000010B50E4B1A6850600D4A126883
:105128009042044607D20C4A10681968BDE810403E
:105138000431FFF7BFBF094A106819680431FFF747
:10514800B9FF074B1A68944238BF1C6010BD00BFF6
:10515800040600201C060020200600202805002048
:10516800000000200B4B1B6800230B4A1268934277
:105178000AD20A4A52F82320126B013A12F8011F88
:10518800BE29FBD00133F0E7054B1868054B1B68B7
:10519800184470470406002034060020C405002087
:1051A800000600202C0600202DE9F74F0C9EDDF8A4
:1051B80038B08A4615469946804628B967486849EE
:1051C80040F2272204F092FE042E05D9654864496E
:1051D8004FF40A7204F08AFE4C2001F0C1F8624ACA
:1051E80013684C3313600446D0B1AF00BBF1000F15
:1051F80003D1384601F0B4F883465C49C4F830B0AE
:105208000B683B440B60BBF1000F04D1204601F052
:1052180001F95C4604E05846BE213A460DF01FFEEF
:10522800534A13682B44136044B952484C494FF40D
:105238000C7204F05BFE4FF0FF308CE005F1804B00
:10524800AD00013D25644C4D236B29684B4A0BF199
:10525800FF3B03EB8B0342F8214004F13400514635
:105268000A2223F0070B0DF012FE042E33464FF0EE
:10527800000728BF042304F1040AE362636450466C
:1052880084F83D700193FFF704FF04F11800FFF75D
:1052980000FF019B2461C3F10503A3616462A76455
:1052A800584641464A4601F0E5F80D9B20600BB18F
:1052B8000D9B1C6001F00CF92B68DFF8E8800133C6
:1052C8002B602F4D2F68EFB92B4B2C601B68012BDF
:1052D80020D108EB07001437FFF7D0FE642FF8D170
:1052E800DFF8C490274F4846FFF7C8FE3846FFF757
:1052F800C5FE2548FFF7C2FE244BC3F80090244B97
:105308001F6007E0234B1B6823B92B68DB6AB34295
:1053180098BF2C60204AE36A11688B421F4988BFF6
:1053280013600A6801320A601D4A116814208B4212
:1053380000FB0380514688BF1360FFF7ADFE01F004
:10534800D5F8144B1B682BB12B68DB6AB34201D22A
:1053580001F0AEF8012003B0BDE8F08FCC2E0108B3
:10536800D72E0108EC2E0108000600202C0600208C
:105378005C0500202F2F010834060020C4050020FA
:105388000406002048050020080600202805002003
:10539800200600202C0500203806002028060020C2
:1053A80024060020600500203405002030B585B0B3
:1053B80000240094019402940394124812499622FE
:1053C8002346FFF7F1FE012805460FD100F036FE0F
:1053D800012805460AD101F073F80C4B1D600C4BEF
:1053E8001C6005B0BDE8304001F0CEB845B90948A9
:1053F800094940F24A5205B0BDE8304004F076BD94
:1054080005B030BD13510008382F01082C050020C5
:105418001C0600203D2F0108D72E0108024A1368F8
:1054280001331360704700BF3005002010B501F04C
:105438004FF8034B1C6801F059F8204610BD00BF17
:105448001C060020F8B52E4B1B68002B52D12D4BA3
:105458002D4D1A6801321A601A681E46F2B92B4C93
:1054680023681B682BB12A482A4940F2B66204F027
:105478003DFD294B2268196821601A60274A136884
:105488000133136023681B6813B94FF0FF3304E03E
:105498001E4B1B68DB68DB685B682B6032682B6817
:1054A8009A422BD3194B1A68126812B94FF0FF337E
:1054B80006E01B68DB68DC68326863689A4201D2E0
:1054C8002B60F8BD271D3846FFF70CFEA36A1BB1F9
:1054D80004F11800FFF706FE114AE36A11688B42CF
:1054E80088BF13600F4A142000FB03203946FFF7DA
:1054F800D3FDD7E70C4A136801331360F8BD00BF2A
:10550800300500201C06002000000020280500208F
:10551800452F0108D72E0108200600202405002069
:1055280024060020600500202005002070B52B4CC3
:1055380023682BB92A482B4940F2855204F0D6FC3F
:1055480000F0C6FF2368013B236024680CB10024E7
:1055580040E0254B1B68002BF9D0244B1A68F2B1A8
:10556800DB68DD682E1D05F11800FFF7BBFD30462E
:10557800FFF7B8FD1E4AEB6A11688B4288BF1360BB
:105588001C4A142000FB03203146FFF785FD1A4B07
:10559800EA6A1B68DB6A9A4228BF0124DDE7174BD9
:1055A8001A681D4642B12B68144C3BB1FFF74AFFFD
:1055B8002368013B2360F6E7012C06D1104B00223B
:1055C8001A60012400F074FF04E00D4B1B68012BE6
:1055D800BDD1F3E700F08AFF204670BD30050020FA
:1055E800702F0108D72E0108340600200806002075
:1055F8002406002060050020040600202005002065
:105608003006002038B50C46054628B91A481B490B
:105618004FF4447204F06AFC2CB91948174940F257
:10562800113204F063FCFFF7F9FE164A2B68116883
:1056380099421C4402D29C4208D201E09C4207D302
:1056480013689C4294BF0023012302E0002300E07A
:1056580001232C603BB10C4B18680430FFF742FD66
:105668002046FFF757FDFFF761FF18B9BDE838403E
:1056780000F01EBF38BD00BF852F0108D72E0108D6
:10568800982F01081C0600200406002010B50446C7
:1056980018B9BDE8104000F00BBFFFF7BFFE084B7C
:1056A8001B681C44074B18680430FFF71BFD204695
:1056B800FFF730FDFFF73AFF0028EAD010BD00BF22
:1056C8001C0600200406002038B50D46044608B91B
:1056D800044B1C6800F0FCFEA564BDE8384000F0EF
:1056E80005BF00BF0406002038B51D4B1B681BB161
:1056F8001C4B01221A6038BD1B4C226823681268B3
:105708001B6B9A4210D820682168343102F086FA5F
:105718000AE02B682BB91548154940F2667204F067
:10572800E5FB2B68013B2B60124D134A29681423B3
:10573800594351580029ECD029684B43D0180833F5
:1057480045686D68456013449D4204BF6B684360BB
:10575800142303FB01225368DB68236038BD00BFB4
:10576800300500203006002004060020B02F010874
:10577800D72E0108240600206005002070B50E46CB
:10578800054628B90B480C4940F2717204F0AEFB8B
:105798000A4C216828461831FFF78CFC2068043031
:1057A800FFF7A0FC064B18683044BDE87040FFF7CF
:1057B800B1BC00BFC32F0108D72E01080406002082
:1057C8001C06002070B50E46054628B90B480C4942
:1057D80040F2A77204F08AFB0A4C21682846183167
:1057E800FFF75AFC20680430FFF77CFC064B18686A
:1057F8003044BDE87040FFF78DBC00BFC32F0108DF
:10580800D72E0108040600201C06002038B5C368FE
:10581800DC682CB91448154940F2DD7204F066FBC7
:1058280004F118052846FFF75DFC114B1B6873B996
:10583800251D2846FFF756FC0E4AE36A11688B427D
:1058480088BF13600C4A142000FB032000E00B48BB
:105858002946FFF721FC0A4BE06A1B68DB6A98427D
:1058680034BF0020012038BDCF2F0108D72E0108F2
:1058780030050020240600206005002008060020CE
:105888000406002010B5044628B90648064940F227
:10589800FF7204F02BFB054B1B682360044B1B684D
:1058A800636010BDDE2F0108D72E010824050020F3
:1058B8001C06002038B50D46044628B91648174975
:1058C80040F6090204F012FB2DB91548134940F6B9
:1058D8000A0204F00BFB00F0FBFD124B61681A682A
:1058E80023689A42104B02D01A688A420ED21A686C
:1058F8002B68521A9A4209D20B4A1268521A9B1AFA
:1059080020462B60FFF7BEFF002400E0012400F0D2
:10591800EDFD204638BD00BFDE2F0108D72E010857
:10592800E82F0108240500201C060020014B012255
:105938001A60704730060020014B1868704700BF96
:1059480004060020044B186828B1044B1B68002B80
:105958000CBF0120022070472C05002030050020D4
:10596800F8B5044648B3154DC36A2A68D26A93420B
:1059780023D22A68D26AC2F1050282611048142231
:1059880002FB030362699A42064613D1271D384673
:10599800FFF7A8FB2B680B4ADB6A1168E3628B42AE
:1059A80088BF1360142000FB03603946BDE8F84047
:1059B800FFF772BB2B68DB6AE362F8BD04060020C0
:1059C800600500202406002038B50446D0B1C26A1C
:1059D800436C9A4216D0051D2846FFF783FB636C7B
:1059E800E362C3F10502A261074A11688B4288BFCE
:1059F8001360064A142000FB03202946BDE83840FE
:105A0800FFF74ABB38BD00BF240600206005002010
:105A180038B51346026C044632B9056805BB4068C0
:105A2800FFF7D2FF65601BE063B980680DF00CFAE0
:105A3800A268236C13446268A360934210D323685E
:105A4800A3600DE0C0680DF0FFF9236CE2682168DF
:105A58005B421A448A42E2603EBF62689B18E36078
:105A6800A36B0133A36338BD30B5056803466DB138
:105A7800C468026C1444C4604068844228BFDD6076
:105A88000846BDE83040D9680DF0DEB930BD10B524
:105A9800044600F01DFDA36C002B0CDD636A53B1B6
:105AA80004F12400FFF7B2FE08B1FFF73FFFA36C33
:105AB800013BA364EFE74FF0FF33A36400F016FD4A
:105AC80000F006FD636C002B0CDD236953B104F173
:105AD8001000FFF79BFE08B1FFF728FF636C013B3E
:105AE8006364EFE74FF0FF336364BDE8104000F0F4
:105AF800FDBC000038B50D46044620B917481849C2
:105B0800F12204F0F3F900F0E3FC216CE36B226866
:105B1800A2604B43D0185B1A13446060E360002016
:105B28004FF0FF33A0636364A36455B9236983B15D
:105B380004F11000FFF76AFE01280AD100F0B8FC52
:105B480007E004F11000FFF799FA04F12400FFF7C9
:105B580095FA00F0CBFC012038BD00BFF62F0108F4
:105B6800FE2F010870B50E460546A8B14C2000F07E
:105B7800F7FB044680B106FB05F0013000F0F0FBAE
:105B8800206030B1E563266420460121FFF7B2FFAB
:105B980009E0204600F03EFC044805494FF4A7728E
:105BA80004F0A4F90024204670BD00BF3D2F010871
:105BB800FE2F01082DE9FF410E4601929846044642
:105BC80028B93948394940F2312204F08FF916B919
:105BD800236C002B5ED1002700F07AFCA26BE36BEC
:105BE8009A4212D2204631464246FFF711FF636AB5
:105BF8003BB104F12400FFF709FE012801D100F0B0
:105C080057FC00F073FC01204BE0019D15B900F032
:105C18006DFC3DE017B902A8FFF734FE00F066FC02
:105C2800FFF7FCFB00F054FC636C013304BF002356
:105C38006364A36C013304BF0023A36400F056FC23
:105C480002A801A9FFF736FEE8B900F041FCA76BEE
:105C5800E56B00F04BFCAF420FD104F11000019945
:105C6800FFF78CFD2046FFF712FFFFF75FFC08B136
:105C78000127B1E700F01CFCFAE72046FFF707FF11
:105C8800FFF754FCF4E72046FFF701FFFFF74EFC4F
:105C9800002006E00648054940F2322204F026F9C1
:105CA80099E704B0BDE8F081F62F0108FE2F01083E
:105CB8001330010838B54C2000F052FB0446D0B12F
:105CC80001230025C3634FF0FF33856345604364B8
:105CD800056083648560C56005641030FFF7CEF900
:105CE80004F12400FFF7CAF9204629462A462B4624
:105CF800FFF760FF05E0044804494FF4C77204F059
:105D0800F5F8204638BD00BF6E300108FE2F0108A7
:105D18002DE9F0410D4616469846044628B91B4819
:105D28001B4940F29F3204F0E1F80DB9236C03BB24
:105D380000F0C6FBA26BE36B9A42074617D22046D7
:105D480029464246FFF764FEA36C01330AD1636A11
:105D58005BB104F12400FFF759FD30B12EB10124E5
:105D680034600DE0A36C0133A364012408E000242F
:105D780006E0084806494FF4687204F0B7F8D7E718
:105D8800384600F0AFFB2046BDE8F081F62F010849
:105D9800FE2F0108133001082DE9FF410E4601923C
:105DA8009846044628B9464846494FF4806204F0AC
:105DB8009DF816B9236C002B78D1002700F088FBDA
:105DC800A36B3BB320463146E568FFF74DFEB8F1BB
:105DD800000F12D1A36B013BA363236813B9FFF72C
:105DE800ABFD606023698BB104F11000FFF70EFD75
:105DF80001280BD100F05CFB08E0636AE5602BB179
:105E080004F12400FFF702FD0028F3D100F06EFB37
:105E1800012052E0019D15B900F068FB44E017B974
:105E280002A8FFF72FFD00F061FBFFF7F7FA00F07B
:105E38004FFB636C013304BF00236364A36C01331D
:105E480004BF0023A36400F051FB02A801A9FFF7D7
:105E580031FD20BB00F03CFBA56B00F047FBC5B94A
:105E6800236833B900F034FB6068FFF779FD00F070
:105E78003DFB04F124000199FFF780FC2046FFF761
:105E880006FEFFF753FB08B1012797E700F010FB68
:105E9800FAE72046FFF7FBFDFFF748FBF4E720464B
:105EA800FFF7F5FDFFF742FB002006E0064805492D
:105EB80040F2014204F01AF87FE704B0BDE8F0812F
:105EC800F62F0108FE2F010879300108F8B50E46B3
:105ED8001746044628B91B481B4940F2964204F06D
:105EE80005F80EB9236C03BB00F0EAFAA36B05466C
:105EF800CBB120463146FFF7B7FDA36B013BA36347
:105F0800636C01330AD123695BB104F11000FFF718
:105F18007DFC30B12FB101243C600DE0636C01338E
:105F28006364012408E01C4606E00848064940F27C
:105F3800974203F0DBFFD7E7284600F0D3FA204664
:105F4800F8BD00BFF62F0108FE2F010879300108BF
:105F580010B5044628B90648064940F2CE4203F077
:105F6800C5FF00F0B5FAA46B00F0C0FA204610BDDA
:105F7800F72F0108FE2F010838B504460D4600F03A
:105F8800A7FA636C013304BF00236364A36C013375
:105F980004BF0023A36400F0A9FAA36B23B904F19A
:105FA80024002946FFF70EFC2046BDE83840FFF7DD
:105FB8006EBD0000F8B50D4C00F08AFA25688DB961
:105FC8000B4F0C4E3846FFF759F83046FFF756F896
:105FD800094B1F60094B14200C212A461E60FFF74D
:105FE800C1FD2060BDE8F84000F080BA6C060020D2
:105FF80040060020540600203C06002070060020C1
:1060080010B5044691424160206105D8D21A8369CF
:106018009A420CD2074B04E09A4201D2994206D226
:10602800054B1868211DFFF745F8002010BD012019
:1060380010BD00BF700600203C0600201FB5FFF70A
:10604800B9FF0D4B1B6833B90C480D49DD2203F02D
:106058004DFF00200CE001230093002301930293DD
:106068000393084808499622FFF79EF80028EBD0CA
:1060780005B05DF804FB00BF6C0600203D2F010849
:10608800CF3001089D610008E53001082DE9F04195
:10609800804617461E460D4631B90D480D49EA227D
:1060A80003F024FF2C4610E0282000F059F904469C
:1060B80058B1FFF77FFF069BC4F80080A561E76130
:1060C80026626362201DFEF7E4FF2046BDE8F081EA
:1060D800ED300108CF3001087FB50F4D064628681E
:1060E8001C46B8B101910292039673B9FFF72AFCD6
:1060F800012818BF2246286808BF089A01A90CBFC2
:1061080023461346FFF756FD04E01A4601A900236B
:10611800FFF7FEFD04B070BD6C060020F7B5194D01
:106128002B681A6842B3DA681668DB68DC68271DD2
:106138003846FEF7D7FF636A20469847E369012B84
:10614800EDD1A3693344B34206D96360246128685A
:106158003946FEF7AFFFE2E70021009120463246BC
:106168000B46FFF7B9FF0028D9D10748074940F285
:10617800762203F0BBFED2E7054A11682960136056
:1061880003B0F0BD3C06002009310108CF300108FA
:10619800700600202DE9F04786B0DFF870A1DAF824
:1061A80000301C68B4FA84F4640914B9DB681E680A
:1061B80000E00026504DFFF731F9FFF737F92B685B
:1061C80098428146A84603D2FFF7A8FF012300E0C2
:1061D8000023C5F80090494FA3BB44BB4E4526D8C1
:1061E800FFF7A4F9DAF80030DB68DD68281DFEF750
:1061F80079FFEB69012B16D1A969284631444A4633
:106208003346FFF7FDFE01280DD1009428462146AC
:1062180032462346FFF760FF28B93948394940F22A
:10622800551203F063FE6B6A2846984724E03868E5
:10623800C9EB0601FFF7A0FEFFF778F9E0B900F017
:1062480037F919E0FFF772F916E0059C636913B195
:10625800201DFEF747FFFFF7E9F8D8F8003098420D
:10626800054601D2FFF75AFF039EC8F80050022ED8
:106278002CD0032E3BD046B10022386803A9134620
:10628800FFF78AFD0028E0D187E7049BA169204633
:1062980019442A46FFF7B4FE0128EDD1636A204667
:1062A8009847E369012BE7D1A269049B00961A4439
:1062B800204631463346FFF70FFF0028DCD110484F
:1062C800104940F22A2203F011FED5E7049BA3618E
:1062D8002BB90D480B4940F2372203F007FEA1699C
:1062E800204629442A462B46FFF78AFEC4E7204663
:1062F80000F090F8C0E700BF680600206C06002098
:1063080009310108CF300108113101083C0600208D
:10631800006A704710B5104B1A68824201D21346C2
:10632800FAE759685C18844201BF406809181846A2
:10633800596041684418944209D1084C2468A24223
:106348001FBF5268891841601A6818BF1268026036
:10635800834218BF186010BD78060020740600201C
:1063680070B50446FFF75AF8264A106898B9264BC4
:10637800264923F007030B60486003F59C41083168
:1063880044F6086548601160585183E822002049A6
:106398000B68103B0B602CB1103463071CBF24F052
:1063A80007040834611E44F61663994222D8174B35
:1063B8001D686968A14203D31268954206D119E0A5
:1063C80029680029F8D02B460D46F2E72A681E688E
:1063D8001A606B681B1B202B06F1100604D92819BC
:1063E80043606C60FFF796FF094A696813685B1A97
:1063F800136000E00026FFF799F80EB901F0FAFBE8
:10640800304670BD740600208806002078060020FB
:106418000400002010B5044678B1FEF7FFFF074AD4
:1064280054F80C1C1368A4F110000B441360FFF718
:1064380071FFBDE81040FFF779B810BD04000020D7
:10644800014B1868704700BF04000020034800682B
:10645800006880F3088862B600DF00BF08ED00E03E
:10646800DFF80C00016841F470010160704700001A
:1064780088ED00E04FF0807300E90A00002340F83F
:106488000C3C6FF0020340F8202C40F8243C4438C0
:1064980070470000054B19680868B0E8F04F80F3B2
:1064A80009884FF0000080F3118870470406002027
:1064B800024B4FF080521A60704700BF04ED00E0B5
:1064C800EFF311804FF05F0181F3118870470020CE
:1064D80008B5FFF7F5FF024A13680133136008BDDA
:1064E8000800002080F3118870470000034B1868EB
:1064F8000138186008B9FFF7F5BF70470800002099
:10650800EFF30980114B1A681EF0100F08BF20ED39
:10651800108A20E9F04F10602DE908404FF05F0025
:1065280080F31188FFF7E0F84FF0000080F311883E
:10653800BDE8084019680868B0E8F04F1EF0100F71
:1065480008BFB0EC108A80F3098870470406002061
:1065580008B5064B4FF080521A60FFF7B1FFFEF7FF
:1065680071FF0020BDE80840FFF7BCBF04ED00E064
:10657800034B044A1A60072243F8042C704700BFF3
:1065880014E000E03F90020010B50C4B1A6842F48A
:106598007F021A601A6842F07F421A60FFF7E8FF2C
:1065A800074B00241C60FFF75BFF064A136843F0A3
:1065B80040431360FFF74AFF204610BD20ED00E07E
:1065C8000800002034EF00E008B54FF48070012186
:1065D80000F02AFB4FF480700021BDE8084000F06D
:1065E80023BB0000436823F040720B6822F48072DA
:1065F80013430A7943EA022343600B69CA681A43C2
:106608008B6810B51A438468084B234013434A79B2
:1066180043EA42038360C36A23F470020B7D013BA3
:10662800DBB242EA0353C36210BD00BFFDF7FFC0EF
:1066380000230360037143718360C3600361012316
:106648000375704710B5074C074B6268134090E814
:106658000600114382681143C2680A43134363600A
:1066680010BD00BF00230140E030FCFF00230360A1
:1066780043608360C3607047836811B143F00103CE
:1066880001E023F00103836070470000044BDA68DF
:1066980009B1104301E022EA0000D860704700BF4A
:1066A800002004E0036823F0010303600023036073
:1066B80043608360C360036121234361294B98428F
:1066C80017D0294B98421BD0284B984220D0284BF2
:1066D800984225D0274B98422AD0274B98422ED053
:1066E800264B984232D0264B984236D0254B9842BA
:1066F80003D13D2243F8082C7047234B984204D11C
:106708004FF4746243F8202C7047204B984204D110
:106718004FF4741243F8382C70471D4B984204D13B
:106728004FF0746243F8502C70471A4B984203D1CB
:10673800194A43F8642C7047184B984203D1184AF9
:1067480043F87C2C7047174B984203D1164A43F8FC
:10675800942C7047154B984203D14FF03D5243F8A3
:10676800AC2C704710600240286002404060024034
:10677800586002407060024088600240A060024099
:10678800B86002401064024028640240406402403D
:1067980058640240706402403D0000208864024052
:1067A800400F0020A064024000003D20B864024071
:1067B8000268134B10B51340CC680A6814434A6941
:1067C80014438A691443CA6914430A6A14434A6A17
:1067D80014438A6A14434A6B14438A6B2243134353
:1067E800036043690C6B23F00702CB6A234313430E
:1067F80043610B6943604B6883608B68C36010BD5D
:106808003F801CF0036811B143F0010301E023F05D
:1068180001030360704741607047406880B2704769
:10682800006800F0010070470B0611D543694AB1B2
:1068380043F080038029436114D0036801F01E01EE
:1068480019430EE023F080038029436104D1704787
:10685800802907D0002AF0D1036801F01E0123EA3D
:106868000101016070470000104A114B10B5114C2E
:10687800A04294BF1C46144621F0F02323F0C31213
:106888002AB1006800F01E0000EAD12202E0406947
:1068980000F0800289004CBF6068206823F08213F2
:1068A800184002D0101C18BF012010BD006402401F
:1068B800006002400F64024010B5084A084B094CBA
:1068C800A04294BF1846104611F0005F21F0F02155
:1068D80021F0821114BFC160816010BD00640240C4
:1068E800006002400F640240837910B50468002BF1
:1068F80031D01E4B196821EA04021A605A680168EF
:1069080022EA01025A600279016802F1804202F526
:106918009E321468214311609A68016822EA0102D4
:106928009A60DA68016822EA0102DA60427901684D
:10693800102A0BBF9A6802F18043114303F59E3376
:1069480003BF9960D96802681A680BBF0A431143EC
:10695800DA60196010BD037903F1804303F59E33B3
:106968001A6822EA04021A6010BD00BF003C014008
:10697800014B5861704700BF003C0140034B5B6905
:10698800184214BF01200020704700BF003C01409E
:10699800014B5861704700BF003C0140F0B5002230
:1069A80001230C6893401C409C4229D155000323C5
:1069B8000668AB40DB431E4006600E790768AE40B0
:1069C8003E4306600E79013E012E11D886681E40AE
:1069D80086604E798768AE403E438660466826EA00
:1069E800040444608C7946689440A4B234434460FB
:1069F800C4682340C360CB79C468AB402343C360F9
:106A08000132102ACCD1F0BD4FF6FF73036000238A
:106A1800037143718371C37170470369194214BFCD
:106A2800012000207047018370474183704710B5EB
:106A380001F00703C90800EB81009B00046A0F21DD
:106A4800994024EA01010162016A9A4011430162F6
:106A580010BD00007FB5868826F03F060446360440
:106A680068460D46360C00F05FF8029A2C48B2FBD7
:106A7800F0F081B20E43A68023882A4E23F001034A
:106A88001B041B0C23802B68B3420AD85B0001311E
:106A9800B2FBF3F39BB2032B89B298BF0423218482
:106AA80023E0EE884BF6FF718E421BBF19214B4342
:106AB80003EB4303B2FBF3F315BF9BB2B2FBF3F353
:106AC80043F480439BB2C3F30B020AB943F00103BA
:106AD8004FF4967101FB00F24FF47A7192FBF1F2D8
:106AE800013292B243F400432284A38323889BB2E9
:106AF80043F00103238023886989AA8823F48163EA
:106B080023F002031B040A431B0C13439BB223808C
:106B18002A89AB8913439BB2238104B070BD00BF9F
:106B280040420F00A086010010B51D4A936803F08B
:106B38000C03042B03D0082B03D01A4B18E01A4B74
:106B480016E05168536811F4800F03F03F03516851
:106B580014BF154A134AB2FBF3F3114A5268C2F341
:106B68000142C1F3881101324B435200B3FBF2F3E7
:106B78000B4A036093680D49C3F30313CC5C0368A5
:106B8800E34043609468C4F382240C5D23FA04F460
:106B980084609268C2F342328A5CD340C36010BDFD
:106BA800003802400024F40000127A000C00002093
:106BB800044B1A6B09B1104301E022EA0000186384
:106BC800704700BF00380240044B5A6B09B11043AC
:106BD80001E022EA00005863704700BF0038024015
:106BE800044B1A6C09B1104301E022EA0000186452
:106BF800704700BF00380240044B5A6C09B110437B
:106C080001E022EA00005864704700BF00380240E3
:106C1800044B1A6A09B1104301E022EA0000186225
:106C2800704700BF00380240044B5A6A09B110434C
:106C380001E022EA00005862704700BF00380240B5
:106C480008B5474B984205D101200146FFF7ECFFF4
:106C580001203DE0B0F1804F05D101200146FFF74A
:106C6800D7FF012076E03F4B984205D10220012151
:106C7800FFF7CEFF02206DE03B4B984205D1042080
:106C88000121FFF7C5FF042064E0384B984205D185
:106C980008200121FFF7BCFF08205BE0344B984235
:106CA80005D110200121FFF7B3FF102052E0314B2E
:106CB800984205D120200121FFF7AAFF202049E0B2
:106CC8002D4B984209D102200121FFF7ADFF022088
:106CD8000021BDE80840FFF7A7BF284B984207D11D
:106CE8004FF480300121FFF79FFF4FF48030EFE72A
:106CF800234B984207D14FF400300121FFF794FF4E
:106D08004FF40030E4E71F4B984207D14FF480203E
:106D18000121FFF789FF4FF48020D9E71A4B9842E9
:106D280005D140200121FFF773FF402012E0174BE7
:106D3800984205D180200121FFF76AFF802009E0F1
:106D4800134B98420BD14FF480700121FFF760FF7D
:106D58004FF480700021BDE80840FFF759BF08BD17
:106D6800000001400004004000080040000C004002
:106D780000100040001400400004014000400140A1
:106D8800004401400048014000180040001C004039
:106D9800002000401C4A038890429BB212D002F5A2
:106DA800806290420ED0B0F1804F0BD0A2F58032B5
:106DB800904207D002F58062904203D002F58062CB
:106DC800904203D14A8823F0700313430F4A90423C
:106DD80008D002F5806290421FBF23F440730A89ED
:106DE8009BB2134303804B68C3620B880385064B31
:106DF800984203D003F58063984201D18B7A0386C9
:106E080001238382704700BF00000140001000404A
:106E18004FF0FF3343600023038003814380837274
:106E28007047038819B19BB243F0010303E023F0D4
:106E380001031B041B0C038070470000038C23F024
:106E480001031B041B0C0384038C70B58488028B1C
:106E58000E8822F073021204120C23F00205164366
:106E68004B888A892D0413430F4A2D0C2B439042DB
:106E7800A4B29BB203D002F5806290420ED1CA89B7
:106E88004D8A23F0080313438A8823F0040313432D
:106E98000A8A24F4407415432C43A4B284800683E0
:106EA8008A684263038470BD00000140038C23F0AC
:106EB80010031B041B0C0384038C30B58588028BDC
:106EC8000C8822F4E6421204120C42EA042223F04F
:106ED800200394B21B048A891B0C43EA02134A88D4
:106EE80043EA0213124A9042ADB29BB203D002F5B4
:106EF8008062904215D123F08003CA899BB243EA8D
:106F080002124FF6BF7313408A8843EA02130A8AB3
:106F180025F4406545EA82054A8A45EA82059BB21E
:106F2800ADB2858004838A688263038430BD00BF64
:106F380000000140038C23F480531B041B0C0384C2
:106F4800038C30B58488828B0D8822F4E6421204C3
:106F5800120C23F4005342EA05221B048D891B0CF2
:106F680043EA05334D8843EA05330B4DA842A4B2E2
:106F780092B29BB203D005F58065A84205D10D8A6F
:106F880024F4804444EA8514A4B2848082838A6805
:106F98000264038430BD00BF0000014041637047B4
:106FA8008163704701647047038B23F008031B0457
:106FB8001B0C194301837047038B23F400631B04E4
:106FC8001B0C43EA012189B201837047838B23F4A8
:106FD80000631B041B0C43EA012189B281837047BB
:106FE800406B7047806B7047006C7047B0F8443056
:106FF80029B16FEA43436FEA53439BB201E0C3F3FD
:107008000E03A0F84430704783899BB20AB1194334
:1070180001E023EA01018181704700007FB5038AFE
:10702800CA889BB223F440531343038283890E46D4
:107038009BB223F4B053098923F00C02B3880B43A5
:1070480071890B439BB213438381838AB2899BB2B4
:1070580023F440731343838204466846FFF764FDB4
:107068001A4B9C4203D003F580639C4201D1039DD7
:1070780000E0029DA38931681BB2002B4FF0190272
:1070880002FB05F2B4BF4D008D00B2FBF5F5A289F5
:107098006426B5FBF6F00001010912B2002A06FBCE
:1070A8001153ADBF1A01D90032313232B5BFB1FB2D
:1070B800F6F2B2FBF6F302F0070203F00F03B4BFD7
:1070C8001043184380B2208104B070BD0010014005
:1070D800838919B19BB243F4005303E023F40053AE
:1070E8001B041B0C83817047C1F308018180704722
:1070F8008088C0F308007047838A9BB20AB119439D
:1071080001E023EA01018182704710B5C1F34214FE
:10711800012301F01F01012C03FA01F301D10C3006
:1071280003E0022C0CBF1030143012B10268134374
:1071380002E0026822EA0303036010BDC94389B272
:1071480001807047012310B5C1F3421401F01F02FA
:107158009C4203FA02F201D1838903E0022C0CBF9E
:10716800038A838A9BB21340028892B23BB1090A10
:1071780001238B40134214BF0120002010BD184684
:1071880010BD090A01238B40DB439BB20380704783
:1071980040F0BF60024B40F40030D860704700BF39
:1071A80000ED00E0C278037810B512B3164AD16832
:1071B8004278C943C1F30221C1F10404E4B2A240F8
:1071C800D4B20F220A4181780A40224303F1604376
:1071D80003F561431201D2B283F800230378012238
:1071E800590903F01F0302FA03F3084A42F8213051
:1071F80010BD5A09012103F01F03994002F1200331
:10720800024A42F8231010BD00ED00E000E100E062
:1072180010B501F0030301F0FC0101F1804101F513
:107228009C319B008C680F229A4024EA02028A60F3
:107238008A68984002438A6010BD08B505F080FC52
:1072480000F000FDFEF7B2F805F0A2FC00200121D5
:1072580005F098FC0120014605F094FCFEE708B50E
:107268004FF48060FFF78AFB012803D14FF4806058
:10727800FFF78EFBBDE8084007F0DCB94FF440701B
:10728800FFF786BF08B5FFF763F9BDE8084003F0CC
:10729800F9BA70471EF0040F0CBFEFF30880EFF344
:1072A800098000F001B870472DE9F84FD0F800B018
:1072B800D0F804A0D0F80890D0F80C800769466987
:1072C8008569C4692549264802F022FF25492448D2
:1072D8005A4602F01DFF24492148524602F018FF81
:1072E80022491F484A4602F013FF21491C484246DA
:1072F80002F00EFF1F491A483A4602F009FF1E49DC
:107308001748324602F004FF1C4915482A4602F085
:10731800FFFE1B491248224602F0FAFE194B1A4991
:107328001A680F4802F0F4FE184B19491A680C48FD
:1073380002F0EEFE174B18491A68094802F0E8FEF9
:10734800164B17491A68064802F0E2FE154B044826
:107358001A68154902F0DCFEFEE700BF3631010865
:1073680049E300084C310108553101085E31010834
:1073780067310108703101087A3101088331010849
:107388008C31010838ED00E09631010828ED00E065
:10739800A13101082CED00E0AC31010830ED00E02E
:1073A800B73101083CED00E0C2310108FEE7FEE715
:1073B800FEE7704706F086BB000200F47F40704786
:1073C800000A704737B500240D4D6846FFF71CFBCF
:1073D8002B681B5969465868FFF7E0FA2B681B5958
:1073E800002258689989FFF722FB2B681B5904343F
:1073F8009869FFF725FC102CE6D103B030BD00BF1B
:10740800186100202DE9F0413C4F3D4D3B788AB092
:10741800044613B12868FFF7D5FF2C6000242B68B9
:107428001B5901211868FFF7C3FB2B681B59012161
:107438005869FFF7D5FB02238DF804308DF8053025
:107448002B681A590AA9926841F8282D1B595868BF
:10745800FFF7A4FA2B681B59586899891A7CFFF71B
:10746800E6FA2B681A59526A03921A590026128DA5
:10747800ADF80820ADF81060ADF80A608DF812601C
:107488001B5902A99869FFF785FC6023ADF81430F1
:107498004FF001082B68ADF8168007961A59928BA1
:1074A800ADF820204FF48072ADF824201B5905A9AF
:1074B800DA6B986990472B681B5908211A6C9869F0
:1074C80090472B681B594146186AFFF7DFF82B686D
:1074D8001B59414698690434FFF788FD102C9ED14A
:1074E8002B689B59012198690436FFF79AFC102EE6
:1074F800F6D101233B700AB0BDE8F081A05400200A
:1075080018610020000000002DE970432DED028B6A
:10751800032882B0064608EE101A05DD36483749BA
:107528004FF4E57202F0E2FCBBEEC88ADFED347A74
:1075380068EE277A17EE900AFCF786FF04460D4698
:1075480007F0C6FE26A3D3E9002320462946B0EE5D
:10755800408AFCF7CDFF22462B46FCF7C9FF22A341
:10756800D3E900238046894620462946FCF7C0FF18
:1075780002460B4640464946FCF708FE1CA3D3E9E1
:107588000023FCF703FEFDF74DFA07EE900A87EE9D
:10759800880A1C4B1B6853F826305C6B9D691B6B73
:1075A800F7EE007AB4EE670AF1EE10FAC8BFB0EE53
:1075B800670ADFED157A20EE270ABCEEC00A8DEDCA
:1075C800010ABDF80400984723460146284602B040
:1075D800BDEC028BBDE87043184700BFAFF30080D5
:1075E8009FE3480CA77144BFBA490C022B87B63FEA
:1075F800448B6CE7FBA9B13F583201086B32010894
:10760800000070421861002000FF7F4703282DE921
:10761800FF410446884617461E4605DD18481949A5
:107628004FF4F87202F062FC01A8FFF7F1FB164D67
:10763800B8F1000F08D00423144A92FBF7F292B273
:10764800ADF80430029209E02B6853F82420526AFE
:10765800029253F824301B8DADF804302B6853F890
:10766800243001A99869FFF795FB2B6853F824305B
:1076780031465A6B9869904704B0BDE8F08100BF65
:10768800583201086B3201081861002000590001C6
:1076980037B5124A106851686B4603C30024104B73
:1076A8003DF8142053F82450012140F27573284600
:1076B800FFF7ACFF3220FDF7E9FF002128460A4614
:1076C8000B46FFF7A3FF01349620FDF7DFFF042CDC
:1076D800E5D1044B187803B030BD00BFBA2E0108BD
:1076E80080320108A05400207320704700B589B08B
:1076F800124B1B6868469B68984702460028F7D1DA
:107708009DF801300E491B0951F8230020B1694644
:107718001346FEF74FFA03E00A4A13680133136071
:107728009DF80130084A1B0952F823100029DFD0C0
:1077380052F8233068469847DAE700BF4000002037
:10774800A454002030550020E854002000B589B02A
:10775800084B694618684FF0FF320023FEF71CFB00
:107768000128F5D1044B1B6868465B6898470028D8
:10777800F8D0EDE72C550020400000207FB5154DCE
:107788002C7824BB202122463C20FEF7EBF9124B33
:107798002021186022460220FEF7E4F90F4B104919
:1077A80018600226962223460096019402940394B8
:1077B8000C48FDF7F9FC23460096019402940394C3
:1077C80009480A499622FDF7EFFC01232B7004B003
:1077D80070BD00BF285500202C550020E45400201F
:1077E8001833010855770008F5760008203301089A
:1077F800014B1878704700BF2855002038B5094B51
:1078080053F8202005461C4622B1074807495C2248
:1078180002F06CFB012020210022FEF7A3F944F8B6
:10782800250038BDA4540020283301083F3301083F
:1078380070B50E4B53F8202006460D461C4622B95B
:107848000B480C496B2202F051FB25B90A4809493B
:107858006C2202F04BFB54F8260029464FF0FF3209
:107868000023BDE87040FEF797BA00BFA45400207B
:10787800523301083F3301087241010808B5034B30
:107888001868FEF765FBC0F13C0008BD2C550020C8
:107898001028DCBF014B43F820107047E854002043
:1078A80010B5044620B90B480B49AF2202F01EFB65
:1078B80023781E2B04D909480749B02202F016FB89
:1078C800074B0022186821461346BDE81040FEF712
:1078D80071B900BF724101083F33010861330108E3
:1078E8002C55002008B5064B00211868FEF702F950
:1078F800044B1B681B6903B19847002008BD00BFF3
:107908002C55002040000020034B1B68DB6803B1A6
:1079180018470120704700BF4000002070B5094C8F
:107928002368054613B11B68002098470DB12560F0
:1079380001E0054B2360236801201B68BDE8704007
:10794800184700BF400000202C00002038B50C4C20
:107958004FF0FF330021054644F8203005F012F9B6
:10796800084A282303FB0522002352F8231001317B
:1079780002D044F8253038BD01330A2BF5D138BD83
:1079880000560020345500202DE9F74F8046FEF7B9
:10799800BFFC2C4B1B78002B50D0C5B22A4B53F898
:1079A8002530581C4AD00A2606FB0536DFF8A49075
:1079B800264A59F8264052F823B0254F0021631C67
:1079C8000BEBC40A49F8263038680B464FF0FF32F3
:1079D800FEF7E2F9DAF80430991C08D05A1C0AD1EB
:1079E800284649F826300024FFF7B0FF1EE000249F
:1079F80049F826401AE01BF83410284605F0C2F86A
:107A0800DAF80420002482B123460221009440467B
:107A1800FEF762FBFDF70AFD009402462146234665
:107A28004046FEF759FB012400E01446002138685F
:107A38000A460B46FEF7BEF8002CAFD003B0BDE8EF
:107A4800F08F00BFFC55002000560020803301084D
:107A5800285600203455002037B51E4B1C781D468B
:107A6800ACBB05F095F823461B4A4FF0FF3142F8AE
:107A780023101A49282202FB031100224FF0FF307D
:107A880041F8220001320A2AF8D10133052BEBD143
:107A98000024134B0093134823464FF47A710022B5
:107AA800FEF7F4FA104B43F824000134052CF0D10A
:107AB800032201200021FEF755F80C4A106020B17E
:107AC80000210A460B46FEF775F801232B7003B018
:107AD80030BD00BFFD550020005600203455002061
:107AE80091790008A8330108145600202856002070
:107AF80010B5044B1C7805F081F8034B01221A706D
:107B0800204010BDFD550020FC550020F8B5054665
:107B18000024174B53F824308B4223D1154F0021F2
:107B28000B464FF0FF323868FEF736F90A2303FB9D
:107B38000543114A0026284642F82360FFF706FF4E
:107B48003346386831463246FEF734F80B4B53F863
:107B58002530A3420AD10A4B53F82500BDE8F84066
:107B6800FFF712BF01340A2CD3D1F8BDF8BD00BF0E
:107B78008033010828560020345500200056002084
:107B8800145600204160C2607047000070B5054679
:107B98000024144B53F824308B421FD1124E00217D
:107BA8000B4630684FF0FF32FEF7F6F80A2303FB66
:107BB80005440E4B4FF0FF32284643F82420FFF7C8
:107BC800C5FE002130680B460A46FDF7F3FF084B57
:107BD80053F82500BDE87040FFF7D6BE01340A2CE3
:107BE800D7D170BD803301082856002034550020B5
:107BF8001456002008B5FEF763FC0649064802F053
:107C080087FA0220012104F0BDFF0420012104F0BD
:107C1800B9FFFEE7B4330108A17F000808B5FEF7F5
:107C28004FFC0649064802F073FA0220012104F0CD
:107C3800A9FF0420012104F0A5FFFEE7C5330108D0
:107C4800A17F00081FB5022300930023019302932C
:107C58000393044904484FF49672FDF7A5FA05B05A
:107C68005DF804FBD7330108E97C000838B50D4CF2
:107C78002578B5B90120FEF71DF80B4B29464FF0C2
:107C8800FF3218602B46FEF787F808F0F9FF02F07C
:107C9800D7F808F0AFFFFFF7DFFE07F0EDFA012392
:107CA800237038BD2D5600201C61002038B5064BC6
:107CB8001C78FFF71DFF054607F004FB2840044029
:107CC80002F0CAF8204038BD2D560020034B002191
:107CD80018680A460B46FDF76DBF00BF1C610020FF
:107CE80037B504F055FF0020012104F04BFF06F0E2
:107CF80061FAFFF7BBFF0220012104F043FF00F007
:107D0800E1F842494248434D02F002FA42494048EC
:107D180002F0FEF94149424B0C682D78414842492E
:107D28001A68424B002D18BF01461B68384800945A
:107D380001913F493F4D02F0EBF93F4B3F491B682A
:107D480000933F4B3248B3F9003001933D4B1A681A
:107D5800043B1B6802F0DCF900F0F2FC01F04CFC7B
:107D680008F030FD00F09AFC06F016FCFFF79EFFC5
:107D7800044609F01DF82040C4B200F0C1F80440E0
:107D880000F0FEFC044001F06BFC044008F0B8FD74
:107D9800044000F0A5FC6CB160B101242C70FFF721
:107DA80095FF04202849FFF7B1FE20462749FFF731
:107DB800ADFE1CE000232B70FFF778FF88B104208C
:107DC8002249FFF7A3FE4FF4FA60FDF75FFC2B781A
:107DD800002BF4D01E490E4802F09AF9FFF776FFFF
:107DE80005E004F0D5FE0420012104F0CBFEFEF7E7
:107DF80027FB18490246064802F08AF902F034F8CF
:107E08004FF0FF30FDF742FCFAE700BFED33010801
:107E1800A17F00089B37010810340108D801002011
:107E2800DC010020DE330108E7330108D40100201B
:107E3800333401082C560020107AFF1F4D340108F6
:107E4800227AFF1F187AFF1FBC0000204400002080
:107E58007B3401088F34010810B50B4B1B781BB914
:107E68000220FDF713FCF8E7084C00210B462068B8
:107E78004FF0FF32FDF790FF002120680A460B46BD
:107E8800BDE81040FDF796BE2D5600201C6100206D
:107E9800014B1870704700BF2E56002010B5084CD3
:107EA800FDF7C4FA2368C01A42F21073984204D945
:107EB800FDF7BCFA2060FDF755F930BF10BD00BFD3
:107EC8008401002010B50D4C2378ABB906F0BEFC38
:107ED80007F04CFCFFF752FC07F0B2FCFFF71EFD61
:107EE80000F024F908F07CFD01F0C6FE00F030F83F
:107EF80000F04EF90123237010BD00BF2F5600205B
:107F080038B50B4B1C7807F0F9FB0546FFF770FCFA
:107F18002840044000F01AF9044008F071FD0440BC
:107F280000F034F8044000F079F9204038BD00BF73
:107F38002F56002010B5054C2046FFF7B1FC01284C
:107F48004FF000030CBF2370184610BD20610020BD
:107F580038B50B4B1C781D468CB90A4B03220120FF
:107F680021461C705C70FDF7FDFD074A106020B1CA
:107F7800214622462346FDF71DFE01232B7038BDFE
:107F8800345600202061002030560020014B18781C
:107F9800704700BF3456002070B51C4B0646187851
:107FA80090B31B4D002128684FF0FF320B46FDF7B8
:107FB800F3FE012827D1174C23781D2B04D9FFF78E
:107FC8005DFC012817D109E0E2180133DBB20A2E63
:107FD80096702370F3D01E2BF1D00EE0207800238A
:107FE8001A18002A07DD0C491944224409799170AE
:107FF800013B5A1DF4D1FFF79DFF002128680A466E
:108008000B46FDF7D7FDF0B270BD00BF3456002017
:108018003056002020610020F53401080023436019
:108028008360C3600361074BC362074B80ED000A9E
:10803800C0ED050A80ED061AC0ED071A036380ED4E
:108048000D2A704700409C4500409CC529B1D0EDE1
:10805800007A37EEC00A80ED010A90ED037A90EDC0
:10806800016A90ED0D0AD0ED0B7AA6EE007AB4EE17
:10807800E77AF1EE10FA80ED037A06DCD0ED0C7A9F
:10808800B4EEE77AF1EE10FA01D5C0ED037AD0ED3F
:10809800027AD0ED066A90ED057A80ED026A76EEF6
:1080A800677A26EE077AC7EE807A90ED030AC0ED6C
:1080B800047A26EE800AD0ED076A80ED090A67EE99
:1080C800A67A37EE000A80ED087AC0ED0A7A30EE1B
:1080D800270A704780ED0B0A7047002343608360CE
:1080E800C3600361704780ED010A704780ED000AA4
:1080F8007047000038B5437813F0030305460FD0E6
:10810800012B00D038BD04461E2204F8022B0021A2
:1081180020460AF0A4FE204603490AF0A8FE284695
:10812800BDE83840FFF7BCBBFA34010810B5054C70
:1081380023782BB90F200449FFF7AAFB01232370EA
:1081480010BD00BF35560020FD800008014B18788F
:10815800704700BF3556002030B50B4B1C680B4BE1
:1081680000221D681346A34209DA0C2159436956B7
:10817800002902DB824205D001320133F3E74FF0D8
:10818800FF3030BD184630BD48560020405600200C
:10819800F0B5184D2C7885B04CBB1748174B1849CB
:1081A800184E194F30601B1A9B105943396001F063
:1081B800BDFF164A164B3F6836681168186023469B
:1081C800BB4207DA0C205843013330560028A8BFB9
:1081D8000131F5E70023012411600E480094019352
:1081E800029303930C499622FCF7DEFF2C7005B02E
:1081F800F0BD00BF4456002064480108784C0108CF
:10820800ABAAAAAA4056002048560020385600209B
:108218003C560020218300080D350108014B1878D1
:10822800704700BF445600202DE9F04118B10128DD
:108238001ED0BDE8F081314B314A324C1F681368BB
:1082480094F803E0304D04330146B9424BDA13F891
:10825800046C16F0800F03D0F50705D51D6804E0FF
:10826800704513D0013000E0274D01310C33ECE7A5
:10827800244B20225A7006221A70244A98701268D9
:10828800DA70234A10685860184633E02023637078
:108298000023A3700C231268E0704B43D7182846BC
:1082A800D35C23710AF0EBFD2946421C19480AF0F9
:1082B800CBFD28460AF0E3FDD7F804800646404681
:1082C8000AF0DDFD2644421C4146B01D0AF0BCFD03
:1082D80028460AF0D4FD054678680AF0D0FD2844FF
:1082E8000530207005E0202363700023A37001236C
:1082F80023700448BDE8F041FFF7D2BA4856002081
:108308004056002040610020C43301083856002040
:108318003C560020456100202DE9F74F0220FFF769
:108328006DFA804C02202146FFF782FA6678A5781C
:1083380016F00306274603D12846FFF775FFF0E736
:10834800012E30D12846FFF707FF002805DAFF2362
:10835800A3700223E570237130E00C235843724B5D
:108368001B681A5C191802F00302022A8B680CD0E9
:10837800032A0FD0012A15BF1B781B88E370A4F8C5
:10838800033014BF022303230BE01B68C4F8033037
:10839800052306E01A68C4F803205A68C4F80720C1
:1083A800092323702EE0022E2ED12846FFF7D4FE93
:1083B800002807DAFF23A370E570267103232370D2
:1083C80020469CE00C235843574B1B681A181B5C2B
:1083D8005906A6D403F00303022B926809D0032B95
:1083E8000BD0012B15BFE378B4F80330137013805A
:1083F80008E0D4F80330136004E054F8031F6368FE
:1084080082E80A0047487AE0002D8AD12B46FA18FC
:10841800927802B9013501331E2BF8D1012D7EDD8A
:1084280042480AF02CFD07EB000808F104088146D1
:1084380040460AF024FD00EB09030093FB18DFF81F
:10844800F8905E793A4B1B680193374BD3F800A03C
:108458004FF0000B5546019B9B4518DA29780A0610
:1084680004D5CB070DD5D5F804900CE068684146D3
:10847800FCF7FAFD38B948462C49FCF7F5FD10B968
:1084880007E0DFF8B4900BF1010B0C35E3E70225A8
:1084980020E00C2303FB0BF30AEB03021AF803306A
:1084A8009E423AD106F0400303F0FF05002B32D17B
:1084B800009B9168043306F003063B44022E03F147
:1084C80002001FD0032E21D0012E15BF9B785B8898
:1084D8000B700B8015480AF0D2FC064640460AF09D
:1084E800CEFC37443844457110480AF0C8FC0546AC
:1084F80040460AF0C4FC2844043020700D48FFF7B9
:10850800CFF90EE7D3F802300B60E3E7D0E9002398
:10851800C1E90023DEE70D25DCE71625DAE703B01D
:10852800BDE8F08F406100204056002043610020E4
:108538004856002040610020C433010807B50420D4
:10854800FFF75CF9504C04202146FFF771F9627877
:1085580002F00302012A234644D0022A6DD0002AE1
:10856800F0D1A378012B02D0022B0BD0EAE7A3703D
:10857800464B1B7840226270013302222270E3705E
:1085880020467EE0E078237040226270A37080B9B4
:108598003F4B207141F6FF721A603E4A1868136813
:1085A800C4F809305368C4F80D30C4F805000F2327
:1085B80065E0394D0138C0B2294607F0EBF90028CB
:1085C8005ED0334A702101231160106823712A6834
:1085D8002378C4F809206A68C4F80500C4F80D2097
:1085E8000D334CE0D4F80300A2780190412161706A
:1085F800E579019962B96A18B2F5005F13D204F1FE
:10860800080089B22A4605F059FD60B100230BE045
:108618006818702807D8501E89B22A460833C0B295
:1086280007F032FAF1E70523174AE37113B9063563
:10863800157025E00623137022E0D4F80300227891
:1086480001904221053A6170A5780199D2B250187B
:108658004DB9B0F5005F0FD2E01D89B205F046FDB7
:1086680050B1002309E0702806D8681E89B2073384
:10867800C0B207F06DFAF3E70523E3710623237010
:108688000148FFF70DF95DE75456002079560020A0
:1086980074560020173501084C56002030B50C4D93
:1086A8002C7885B08CB90B4807F052F9003018BF08
:1086B8000120012328708DE81800029403940648CD
:1086C800064996222346FCF76FFD05B030BD00BF72
:1086D8007856002079560020458500081335010892
:1086E800014B1878704700BF7856002070B5104CC1
:1086F80010492368B3FA83F30E225B09851C02FB39
:1087080003120E3055F8046B42F8046B8542F9D118
:10871800288810800E22236002FB03139B890BB963
:10872800054A1370FCF782FE044B186070BD00BF49
:108738007C560020805600209E560020A05600201F
:1087480010B50A4C23787BB9FFF718F803200849BD
:10875800FFF79EF8FCF76AFE064B074A18600123EC
:108768001370064A2370137010BD00BF9F56002077
:10877800F5860008A05600209C5600209E56002032
:1087880008B5FFF735F8014B187808BD9F5600204B
:1087980070B5114B114C1E68FCF748FE104B1B6856
:1087A800C01AB0F5FA7F14D90E4D0E2303FB06F25A
:1087B800A9180023B0F5FA6FAB504B608B6008D94D
:1087C800094A0B731370094A4B7301232370137002
:1087D80070BD0023237070BD7C5600209C5600207D
:1087E800A0560020805600207A5600209E56002071
:1087F80008B5FCF71BFE024B1B68C01A08BD00BF7A
:10880800A056002030B5064B1C68064B0E2505FB0C
:1088180004331C680460586808609B68136030BDA6
:108828007C5600208056002030B5144B1C7804700C
:108838001348057804460DB9187800E0002000F0C8
:1088480001000870197889B10E499FED0F7A086800
:108858000E490E2505FB0011898907EE901AF8EEDE
:10886800677A77EEC77AC7EE877A01E0DFED087A94
:10887800C2ED007A1B78237030BD00BF7A56002005
:108888009D5600207C56002000FEFF4680560020A2
:1088980000000000012303700B7000231370704761
:1088A8000B4B1A680B4B0E2101FB023399890A4BBB
:1088B8001B780BB1002307E0B1F57A7FFAD94EF6A1
:1088C8006023994298BF0B460380FFF761BF00BF42
:1088D8007C560020805600209E56002010B5394C4A
:1088E8002378002B6DD19FED380A3848DFED380A20
:1088F8009FED382AB0EE401AF0EE401AFFF78EFBD3
:108908009FED310A3448DFED320A9FED322AB0EE8E
:10891800401AF0EE401AFFF781FB9FED2B0ADFEDBE
:108928002C0A9FED2E1A9FED2B2A2D48F0EE401AA7
:10893800FFF774FB25489FED2B0AFFF7CBFB264872
:108948009FED280AFFF7C6FB25489FED270AFFF78A
:10895800C1FB9FED1D0A25489FED1E2AF0EE401A27
:10896800F0EE0C0AB0EE001AFFF758FB9FED160A5E
:108978001F489FED182AF0EE401AF0EE0C0AB0EEF0
:10898800001AFFF74BFB9FED100A9FED122A1948BA
:10899800F0EE400AB0EE401AF0EE401AFFF73EFB48
:1089A8001248B3EE040AFFF795FB1148B3EE040A28
:1089B800FFF790FB0F489FED100AFFF78BFB012391
:1089C800237010BDA456002000000000486200205B
:1089D80000008C426F12033BD86100209A998541B0
:1089E8009C6100203333054233B326436061002085
:1089F80010620020806200200000B443014B187808
:108A0800704700BFA456002000B52DED068B4048E6
:108A1800B0EE408A83B0B0EE610AF0EE609AF0EEF4
:108A2800418AB0EE42AAB0EE629AFFF75FFBB0EE61
:108A3800480A37489FED378A0121FFF707FBB4EE54
:108A4800C80AF1EE10FA0DDCDFED337AB4EEE70A6E
:108A5800F1EE10FA09D4BDEEC00A8DED010ABDF899
:108A6800043004E047F6FF7301E048F201032B4AA3
:108A78002B481380B0EE4A0AFFF738FB2848B0EEBF
:108A8800690A0121FFF7E2FAB4EEC80AF1EE10FA1A
:108A98000DDCDFED217AB4EEE70AF1EE10FA09D425
:108AA800BDEEC00A8DED010ABDF8043004E047F6BA
:108AB800FF7301E048F201031A4A1B481380B0EE25
:108AC800490AFFF713FB1848B0EE680A0121FFF7BF
:108AD800BDFAB4EEC80AF1EE10FA0DDCDFED0E7A3D
:108AE800B4EEE70AF1EE10FA09D4BDEEC00A8DED36
:108AF800010ABDF8043004E047F6FF7301E048F2CC
:108B080001030A4A138003B0BDEC068B5DF804FB31
:108B18004862002000FEFF4600FEFFC6D461002028
:108B2800D86100209A6100209C6100209861002093
:108B380070B506462DED068B2648B0EE40AAB0EE7D
:108B4800610AB0EE609AF0EE418AF0EE429AB0EE19
:108B5800628A14460D46FFF7C9FA01211D48B0EE96
:108B68004A0AFFF773FA1C4886ED000AB0EE690A54
:108B7800FFF7BCFA1848B0EE490A0121FFF766FA78
:108B8800DFED167A85ED000A38EE680AB4EEE70ADA
:108B9800F1EE10FA04DDDFED127A30EE670A0AE032
:108BA800DFED107AB4EEE70AF1EE10FA44BFDFED1C
:108BB8000C7A30EE270A0C48FFF795FAB0EE680AEF
:108BC80009480021FFF742FABDEC068B84ED000A44
:108BD80070BD00BF606100201062002000003443B7
:108BE8000000B443000034C38062002008B50A487E
:108BF800FFF773FA0948FFF770FA0948FFF76DFAAB
:108C08000848FFF76AFA0848FFF767FA0748BDE817
:108C18000840FFF762BA00BF6061002010620020C0
:108C28008062002048620020D86100209C610020FA
:108C3800044B1B880380044B1B880B80034B1B8849
:108C480013807047D46100209A6100209861002049
:108C5800024B1A780AB901221A707047AC560020E4
:108C6800014B1878704700BFAC560020DFED817AC1
:108C78009FED817A8148824A824920EE270A60EE78
:108C8800A70A21EE271AF5EE401AF1EE10FAF0B510
:108C980080EE070A7C4C80EE875A81EE071AF6EEC2
:108CA800004AF7EE087A09D1B5EE402AF1EE10FA3B
:108CB80004D1F5EE402AF1EE10FA7CD062EE026A99
:108CC80094ED004AD1ED005A704F714EE1EEA16A61
:108CD8000025E2EEA26A16EE903A5B10C3F1BE439D
:108CE80003F55D1303F5CE531F3307EE103A66EE16
:108CF800A46A06EE103A67EE666AB0EE677AA6EEE8
:108D0800867A644BD0ED006A26EE077A25EEC46AAF
:108D180061EE871A22EE072A62EE872A92ED007A20
:108D280065EE875AA6EE876AE4EE265AFEEE006ADA
:108D3800E4EE046A25EEE24AE7EE076A93ED007A6C
:108D4800554BA2EE264AB5EEC07A66EEE16A26EEEB
:108D5800422AF1EE10FAE2EE866AA1EEA52A1EDD9D
:108D680027EE046AD7ED003AD6ED005AE6EE033A4C
:108D780027EE266A27EE027AE6EE035A93ED006A9A
:108D8800C7ED003AA7EE036AC6ED005A83ED006A04
:108D980030EE230A35EE255A31EE061A02E03D6020
:108DA80035601D603D4B93ED007AA7EE040AA7EEEF
:108DB800265AA7EE021A23EE243A91ED004AD4ED82
:108DC800003A92ED007A21EE031A20EE030A24EE0F
:108DD800016A65EE030AA3EE806A90ED005A60EE20
:108DE800C45AF1EE476AE5EE405AA6EEA06AE6EEEE
:108DF800815A35EE066A61EE456A25EE205AE3EEA1
:108E0800A06AA3EE815A73EEA55AA4EE405AE7EE83
:108E1800006A37EE055A26EE067A74EE266AA5EE43
:108E2800A57AA6EEA67AA5EE057A17EE103A5B109B
:108E3800C3F1BE4303F55D1303F5CE531F3327EE8D
:108E4800247A04EE903A24EEC77AE7EE247A64EEA8
:108E5800A77A65EEA75A26EE276A66EEA76A25EE78
:108E6800275AC4ED005A80ED006AC1ED006A82ED10
:108E7800005AF0BDDB0F494000003443B0560020D3
:108E8800B8560020B456002088010020BC560020A7
:108E9800C05600208C010020A85600209001002018
:108EA80070B52DED068B364BD3ED007A354BD3EDEF
:108EB800006A354B93ED006A344B93ED000A20EEBF
:108EC800267A20EE468AA6EE277A04460D46A7EEB5
:108ED800A68A164677EE079A27EEA75A26EE067A4E
:108EE80038EE088A60EE005A37EE459AF7EE004AE7
:108EF80066EEA60A39EE659AB4EEE48AF1EE10FA47
:108F080039EE209A09DCFFEE004AB4EE648AF1EEED
:108F180010FA48BFB0EE648A01E0B0EE648A27EE2A
:108F2800800A37EE057AA6EE260A37EE657A30EE25
:108F3800000A77EE600A08F06FF9DFED158A9FEDF9
:108F480015AA20EE280A80EE0A0A86ED000AB0EE7D
:108F5800480A08F003F920EE280AF0EE490A80EEE4
:108F68000A0A85ED000AB0EE690A08F055F920EE04
:108F7800280A80EE0A0ABDEC068B84ED000A70BD53
:108F8800B0560020B856002088010020B4560020B2
:108F980000003443DB0F4940164B93ED007A164B23
:108FA80093ED006A154B93ED005A154BD3ED005A1B
:108FB80065EE867A65EEC56AE5EE077AE7EE066A3B
:108FC80027EE477A77EEA77AA5EE057A60EEA70A2C
:108FD800A5EEE57A76EEA66AF0EE607AE0EE267AFD
:108FE800A6EE067AB7EE000AE1EE077A37EEC00A77
:108FF800704700BFB0560020B856002088010020F6
:10900800B4560020F0EEC07AF4EEE07AF1EE10FAF1
:109018000BD4B5EEC00AF1EE10FA02DD30EE600AAC
:10902800704704D530EE200A70479FED010A70475B
:10903800000000002DE9F0414E10851B5210AC18BD
:109048001C444FF6FF7724EAE474BC421B49DFF85E
:109058007880A5EB0205A8BF3C460644ED1A0C60D3
:1090680025EAE575B11ABD42D4BFC8F80050C8F862
:1090780000703244124D134E194421EAE171D31A9B
:1090880023EAE373B942D4BF29602F600020A1B25C
:10909800BB42D4BF33603760FEF736FAB8F8001029
:1090A8000120FEF731FA29880220FEF72DFA3188CF
:1090B8000320BDE8F041FEF727BA00BFD0620020C8
:1090C800BC620020C8620020C46200202DE9F04F75
:1090D8002DED048B002085B00321FCF7F5FAFEF78F
:1090E800BBFE04204049FEF711FDFCF79FF94FF045
:1090F800000A039056463D4C3D4D03A80221FCF75B
:1091080081FA204629463B4A06F056F806F04EF802
:109118000028F0D0DFF81891DFF81881364F48465C
:1091280041463A46FFF76EFB34483549354AFFF762
:10913800B1FB002E00F082809FED338AD5ED001A36
:1091480095ED012AD5ED022A94ED000AD4ED010A25
:1091580094ED021A2D4EDFF8E0B0B0EE483AFFF772
:1091680085FD2B4B0193184659463246FFF798FE6A
:1091780095ED021AD5ED010A95ED000AFFF70CFFEF
:10918800D5ED017AD5ED006A95ED027A214A67EEB0
:10919800A77A82ED000AE6EEA67A1F4AE7EE077A7A
:1091A800C2ED007A1D4AD2ED000AFFF72BFF1C4AD8
:1091B800D7ED002AD2ED007A019B96ED001ADBED7F
:1091C800000AD9ED001A98ED002A16481649E0EE73
:1091D800087A002693ED000AC2ED007AF1EE622AC1
:1091E800124AFFF7A5FC2AE044000020505700204F
:1091F800D0560020DC56002084570020B86200209A
:10920800D6620020CE6200206F12833BE856002011
:10921800C45600205C57002060570020CC01002075
:109228004C5700207C570020F85600207457002027
:109238008C570020EC5600200C570020012605F022
:10924800F7FFC04F002800F02A810AF1010ABAF19D
:10925800040F40F22481BC4DBC49BD4A3846FFF793
:10926800E3FA2A46BB49BC4804F052FDBB4B95EDD6
:10927800007AD3ED007ABA4DBA4BD5ED006AB7EE55
:10928800008A38EE670AF0EE488A27EE000AA6EE52
:10929800A70AD3ED007AB44B85ED000A78EE676A29
:1092A80027EE267AD3ED006AA6EEA77A83ED007A38
:1092B800AE4B30EE470AD3ED000AFFF7A3FEAC4BE6
:1092C800AC4A83ED000AAC4B92ED007AD3ED006A0C
:1092D800B1EE476AB4EEE66AF1EE10FAD4BFF0EEEA
:1092E800667AF0EE467AB4EEE77AF1EE10FA08D430
:1092F800B4EEE66AF1EE10FAD4BFB0EE667AB0EEDC
:10930800467A9E4AD2ED007A78EEE76A20EE260A7F
:10931800A7EE270A83ED000A994B83ED000A06F0B1
:10932800ABF810B9974B0022DA60884BDFF89CB293
:109338001A7802B3944ADFF84CA2D2ED000A934A95
:1093480095ED000A92ED001A914A9AED038AD2ED42
:10935800001A9FED902A8BED000A5046FEF75EFE3C
:10936800504695ED000A8AED038A0021FEF76EFE4D
:10937800894A82ED000A3A78DFF81CA2002A00F038
:109388008680734A7F4892ED007A844A92ED000AFB
:1093980087EE007A9BED000A37EE000A8BED000A93
:1093A800FEF7A4FEDBED007A7D4B95ED000AD3EDC8
:1093B800000A30EE670AFFF725FE7A4B93ED007A34
:1093C800F1EE476AF4EEC06AF1EE10FAD4BFF0EE9F
:1093D800407AF0EE667AB4EEE77AF1EE10FA08D445
:1093E800F4EEC06AF1EE10FAD4BFB0EE407AB0EEF7
:1093F800667A6D4B634883ED007AB1EE470AFEF753
:1094080072FE6A4B5F4893ED009A594B95ED000A3E
:1094180093ED007A664BDAED009A93ED008A584B8B
:1094280027EE088A93ED007A624BD3ED007A00218B
:10943800A7EE278AFEF70AFE78EEC97A38EE000A08
:109448005D485E4B27EE800AD0ED007A1A885C4BA7
:10945800A9EE290A19885B4B8AED000A20EE270A33
:109468001B88BDEEC00A10EE100A034483F31003F4
:1094780098B2814238BF0B469A4203DC88420246C2
:1094880028BF0A46504B4FF0000A1A8007E04F49A0
:1094980000230B604449CAF800300B6092464C4BDD
:1094A8004C491B7813B9D9F800300B604A4B4B4A2A
:1094B8001B7813B9D8F800301360494B1878494B1A
:1094C80030B94948D0ED007AF1EE677AC3ED007AF9
:1094D800D4ED010AD1ED001A92ED002AD3ED002A4D
:1094E80094ED000A94ED021AF1EE600AFFF78CFA87
:1094F8003E483F493F4AFFF79BFB3B781BB9324840
:10950800FFF7CEF905E005F093FE0028F7D0FFF746
:109518003FF92D4B188860B1364B344A1B88B2F995
:109528000010334A5B42B2F900201BB2FFF782FDFC
:10953800E1E5014602460346FFF77CFDFFF756FBCF
:10954800D9E500BF785700204857002088570020E9
:1095580070570020F056002000570020A00100207E
:1095680064570020D001002080570020BC01002053
:10957800CC560020C40100204C570020A801002030
:10958800F456002010570020B8010020B401002034
:10959800FC5600200AD7233C685700209C01002075
:1095A8006C570020A40100200457002094010020DB
:1095B800C8560020C0010020B00100200A57002032
:1095C800AC01002098010020C2620020C8010020E0
:1095D800B86200207C570020D6620020F856002090
:1095E800CE6200207457002084570020CC620020EF
:1095F800D4620020C062002030B5124D2C7885B0AE
:10960800ECB91148FDF7FEFE05F0BCFAFFF720FBA8
:10961800FFF764F90D4A0E480E49002313600E4AFD
:1096280013600E4A136004238DE818000294234641
:1096380003944FF4E172FBF7B7FD01232B7005B0DB
:1096480030BD00BF085700201C0000207C570020B8
:10965800D5900008B2350108F8560020745700204C
:1096680010B5FEF715F8044605F060FB2040C4B2BB
:10967800FFF7F6FA0440FFF7C1F9204010BD0000DB
:109688002DE9F34100260C23184D73435A598242A1
:1096980004D00136082EF6D1022024E02B449C6821
:1096A80024B123680022A2601C46F9E70C2707FBB7
:1096B8000657786888B14FF0FF38012122462346C3
:1096C800CDF80080FCF708FDCDF80080786803210C
:1096D80022462346FCF700FD7C600C235E434FF0D6
:1096E800FF33AB51002002B0BDE8F081D05A002012
:1096F80013B500210C220C4C02FB01F31A598242CB
:1097080004D001310829F5D102200AE023444FF0A2
:10971800FF3200920022586801211346FCF7DCFC56
:10972800002002B010BD00BFD05A002038B5124B3F
:10973800124D1B780BB900230DE000242859431C57
:1097480005D0FFF7D5FF0D4BE058FFF799FF0C3414
:10975800602CF3D1EFE74FF0FF32EA500C33602B67
:10976800F9D10023064A1A440C330021B3F5407F8F
:109778009160F7D138BD00BF385B0020D05A002077
:109788009057002008B5FCF7C3FDBDE80840014626
:10979800014800F07FBB00BF359B00082DE9F74F5B
:1097A800019100210C23414A4B439C58844204D028
:1097B80001310829F6D1022075E01A443C4B1B6898
:1097C80000933C4BD3F800800021019B994224DA96
:1097D800976800253B46384C2BB118791B6800095F
:1097E800205C0544F7E7354810F811C00CF00F0E5F
:1097F8004E0014F80E402C441E2C00EB060A81463D
:109808000DDCDFF8BCE00C2505FB03E4A06840B1E3
:109818000133402BF5D1284645E0002043E00720DE
:1098280041E09AF801A0BAF1FF0F10D00646009D5A
:10983800AE42C0DA0C2505FB06F918F909B0BBF1F0
:10984800000F02DB50451DD001300136EFE72079CB
:109858004FEA1C15023665F303004E446CF30710FB
:10986800A660207102310C20434300204EF803000B
:109878000FB9946004E03B680BB11F46FBE73C60FE
:109888000131A2E7002E96DB08EB090005FB03E592
:109898008068A86018F80960287966F303006CF3FB
:1098A80007102871DFE703B0BDE8F08FD05A002019
:1098B800345B00203C5B002082370108945A00206A
:1098C800905700202DE99F480520FDF797FF8A4C07
:1098D8008A4E21460520FDF7ABFF00210B46306874
:1098E8004FF0FF32FCF758FA637813F0030F27465E
:1098F80063D1A3788BB1012B5FD1A370804B1B6818
:10990800E370804B50221868627040230822606020
:1099180022702272637220464DE07B4A7B48D2F85F
:1099280000C0026894F80380794D043219466145F5
:1099380080F2DB8012F804EC1EF0800F04D01EF0D9
:10994800010F05D0156804E0434505D0013300E058
:10995800704D01310C32EAE750226270E370002248
:109968000C234B43A2700268284602EB0309D35C20
:10997800237109F084FA2946421C674809F064FA01
:10998800284609F07CFAD9F804A08046504609F028
:1099980076FA4744421C5146B81D09F055FA284644
:1099A80009F06DFA0546D9F8040009F068FA284468
:1099B800053020705048FDF773FF637803F0030308
:1099C800012B67D14C4B9B78052B5AD8DFE803F065
:1099D800031F262A515594F803A094F800B00021DB
:1099E8004E4BCA5892451A464DD00C316029F7D1D2
:1099F80000230C2505FB03F8DFF8209152F808C076
:109A0800BCF1FF3F1CD00133082BF2D12FE02178A5
:109A1800E07802394908FFF7C1FE35E0E078FFF742
:109A28002FFE31E0E178207900220C233B4F53438D
:109A3800DD598D4239D00132082AF6D1022023E0BF
:109A480009EB0807364B49F808A0364800934FF44D
:109A58007A713B460122CDF80CC0FCF717FB0023B6
:109A68007860BB60DDF80CC0D8B949F808C0284652
:109A78000AE0E078FFF73CFE06E0FFF757FE00201B
:109A880002E0082000E01120207103231A48237007
:109A9800FDF706FF002130680A460B46FCF78AF8F6
:109AA80015E7ABF102015046B4E700EB8000450032
:109AB8001F4415D04FF06408CDF800802A460221D3
:109AC80000237868FCF708FB7D68FBF7AFFC0021F2
