:020000040800F2
:10400000FFFF0120E9AB00081B7A00081D7A0008B9
:10401000357B0008377B0008397B00080000000072
:10402000000000000000000000000000B56900086A
:104030003B7B000800000000496A00080D7A000878
:104040002DAC00082DAC00082DAC00082DAC0008EC
:104050002DAC00082DAC00082DAC00082DAC0008DC
:104060002DAC00082DAC000849F000089DBF0008E9
:104070002DAC000805C00008D1BF0008F9BF00083A
:104080003D7B000891BF00082DAC00082DAC000856
:104090002DAC00082DAC00082DAC00082DAC00089C
:1040A0002DAC00082DAC00082DAC00082DAC00088C
:1040B0002DAC00082DAC00082DAC000875BF000821
:1040C00081BF0008A9BF0008B5BF00082DAC0008DB
:1040D0002DAC00082DAC00084DF000082DAC0008F8
:1040E000E77900082DAC00082DAC00082DAC0008C5
:1040F0002DAC00082DAC00082DAC0008C5BF000891
:104100002DAC00082DAC00082DAC00082DAC00082B
:1041100051F000082DAC00082DAC00082DAC0008B3
:104120002DAC00082DAC00082DAC00082DAC00080B
:104130002DAC00082DAC00082DAC00082DAC0008FB
:104140002DAC00082DAC00082DAC00084DCC0008AB
:104150002DAC00082DAC000859F0000855F00008FF
:10416000DDBF0008E9BF00082DAC00082DAC000839
:104170002DAC00082DAC00082DAC00082DAC0008BB
:084180002DAC00082DAC000875
:1041880081F0004102E000BF83F0004330B54FEA00
:1041980041044FEA430594EA050F08BF90EA020F6D
:1041A8001FBF54EA000C55EA020C7FEA645C7FEA00
:1041B800655C00F0E2804FEA5454D4EB5555B8BF23
:1041C8006D420CDD2C4480EA020281EA030382EA94
:1041D800000083EA010180EA020281EA0303362D26
:1041E80088BF30BD11F0004F4FEA01314FF4801CF9
:1041F8004CEA113102D0404261EB410113F0004F0B
:104208004FEA03334CEA133302D0524263EB4303C1
:1042180094EA050F00F0A780A4F10104D5F1200E5F
:104228000DDB02FA0EFC22FA05F2801841F10001BA
:1042380003FA0EF2801843FA05F359410EE0A5F18E
:1042480020050EF1200E012A03FA0EFC28BF4CF0BF
:10425800020C43FA05F3C01851EBE37101F0004575
:1042680007D54FF0000EDCF1000C7EEB00006EEB82
:104278000101B1F5801F1BD3B1F5001F0CD349080C
:104288005FEA30004FEA3C0C04F101044FEA445263
:1042980012F5800F80F09A80BCF1004F08BF5FEAEA
:1042A800500C50F1000041EB045141EA050130BDCA
:1042B8005FEA4C0C404141EB010111F4801FA4F16D
:1042C8000104E9D191F0000F04BF01460020B1FAC2
:1042D80081F308BF2033A3F10B03B3F120020CDAFA
:1042E8000C3208DD02F1140CC2F10C0201FA0CF0D8
:1042F80021FA02F10CE002F11402D8BFC2F1200C3D
:1043080001FA02F120FA0CFCDCBF41EA0C019040F2
:10431800E41AA2BF01EB0451294330BD6FEA04043B
:104328001F3C1CDA0C340EDC04F11404C4F1200226
:1043380020FA04F001FA02F340EA030021FA04F338
:1043480045EA030130BDC4F10C04C4F1200220FA8F
:1043580002F001FA04F340EA0300294630BD21FACD
:1043680004F0294630BD94F0000F83F4801306BF93
:1043780081F480110134013D4EE77FEA645C18BF87
:104388007FEA655C29D094EA050F08BF90EA020F1E
:1043980005D054EA000C04BF1946104630BD91EA16
:1043A800030F1EBF0021002030BD5FEA545C05D119
:1043B8004000494128BF41F0004130BD14F5800458
:1043C8003CBF01F5801130BD01F0004545F0FE41CC
:1043D80041F470014FF0000030BD7FEA645C1ABF01
:1043E800194610467FEA655C1CBF0B46024650EA38
:1043F800013406BF52EA033591EA030F41F4002164
:1044080030BD00BF90F0000F04BF0021704730B5E9
:104418004FF4806404F132044FF000054FF00001BE
:1044280050E700BF90F0000F04BF0021704730B57F
:104438004FF4806404F1320410F0004548BF404254
:104448004FF000013EE700BF42004FEAE2014FEAA9
:1044580031014FEA02701FBF12F07F4393F07F4F84
:1044680081F06051704792F0000F14BF93F07F4FB6
:10447800704730B54FF4607401F0004521F00041F9
:1044880020E700BF50EA010208BF704730B54FF07F
:1044980000050AE050EA010208BF704730B511F084
:1044A800004502D5404261EB41014FF4806404F1BC
:1044B80032045FEA915C3FF4DCAE4FF003025FEA3E
:1044C800DC0C18BF03325FEADC0C18BF033202EBC6
:1044D800DC02C2F1200300FA03FC20FA02F001FA20
:1044E80003FE40EA0E0021FA02F11444C1E600BFBF
:1044F80070B54FF0FF0C4CF4E06C1CEA11541DBF72
:104508001CEA135594EA0C0F95EA0C0F00F0DEF83C
:104518002C4481EA030621EA4C5123EA4C5350EA21
:10452800013518BF52EA033541F4801143F4801372
:1045380038D0A0FB02CE4FF00005E1FB02E506F003
:104548000042E0FB03E54FF00006E1FB03569CF058
:10455800000F18BF4EF0010EA4F1FF04B6F5007F5E
:1045680064F5407404D25FEA4E0E6D4146EB0606D0
:1045780042EAC62141EA55514FEAC52040EA5E5059
:104588004FEACE2EB4F1FD0C88BFBCF5E06F1ED803
:10459800BEF1004F08BF5FEA500E50F1000041EB3A
:1045A800045170BD06F0004646EA010140EA0200E7
:1045B80081EA0301B4EB5C04C2BFD4EB0C0541EA09
:1045C800045170BD41F480114FF0000E013C00F31E
:1045D800AB8014F1360FDEBF002001F0004170BD42
:1045E800C4F10004203C35DA0C341BDC04F114045B
:1045F800C4F1200500FA05F320FA04F001FA05F2E7
:1046080040EA020001F0004221F0004110EBD370B3
:1046180021FA04F642EB06015EEA430E08BF20EADF
:10462800D37070BDC4F10C04C4F1200500FA04F382
:1046380020FA05F001FA04F240EA020001F0004114
:1046480010EBD37041F100015EEA430E08BF20EA87
:10465800D37070BDC4F1200500FA05F24EEA020ECF
:1046680020FA04F301FA05F243EA020321FA04F0FE
:1046780001F0004121FA04F220EA020000EBD370B5
:104688005EEA430E08BF20EAD37070BD94F0000FB5
:104698000FD101F00046400041EB010111F4801FE9
:1046A80008BF013CF7D041EA060195F0000F18BF9A
:1046B800704703F00046520043EB030313F4801FD6
:1046C80008BF013DF7D043EA0603704794EA0C0F90
:1046D8000CEA135518BF95EA0C0F0CD050EA4106A6
:1046E80018BF52EA4306D1D181EA030101F0004123
:1046F8004FF0000070BD50EA410606BF104619464B
:1047080052EA430619D094EA0C0F02D150EA013656
:1047180013D195EA0C0F05D152EA03361CBF104697
:1047280019460AD181EA030101F0004141F0FE4136
:1047380041F470014FF0000070BD41F0FE4141F4BA
:10474800780170BD70B54FF0FF0C4CF4E06C1CEABA
:1047580011541DBF1CEA135594EA0C0F95EA0C0F6F
:1047680000F0A7F8A4EB050481EA030E52EA03352A
:104778004FEA013100F088804FEA03334FF080554B
:1047880045EA131343EA12634FEA022245EA111578
:1047980045EA10654FEA00260EF000419D4208BF29
:1047A800964244F1FD0404F5407402D25B084FEAD6
:1047B8003202B61A65EB03055B084FEA32024FF482
:1047C80080104FF4002CB6EB020E75EB030E22BFDF
:1047D800B61A754640EA0C005B084FEA3202B6EB9F
:1047E800020E75EB030E22BFB61A754640EA5C004E
:1047F8005B084FEA3202B6EB020E75EB030E22BFDE
:10480800B61A754640EA9C005B084FEA3202B6EBDE
:10481800020E75EB030E22BFB61A754640EADC009D
:1048280055EA060E18D04FEA051545EA16754FEAFF
:1048380006164FEAC30343EA52734FEAC2025FEA1D
:104848001C1CC0D111F4801F0BD141EA00014FF0AC
:1048580000004FF0004CB6E711F4801F04BF01437D
:104868000020B4F1FD0C88BFBCF5E06F3FF6AFAE99
:10487800B5EB030C04BFB6EB020C5FEA500C50F129
:10488800000041EB045170BD0EF0004E4EEA1131AC
:1048980014EB5C04C2BFD4EB0C0541EA045170BDB3
:1048A80041F480114FF0000E013C90E645EA060EF7
:1048B8008DE60CEA135594EA0C0F08BF95EA0C0F25
:1048C8003FF43BAF94EA0C0F0AD150EA01347FF46D
:1048D80034AF95EA0C0F7FF425AF104619462CE744
:1048E80095EA0C0F06D152EA03353FF4FDAE1046A7
:1048F800194622E750EA410618BF52EA43067FF4F8
:10490800C5AE50EA41047FF40DAF52EA43057FF487
:10491800EBAE12E74FF0FF3C06E000BF4FF0010C92
:1049280002E000BF4FF0010C4DF804CD4FEA410CF6
:104938007FEA6C5C4FEA430C18BF7FEA6C5C1BD0C3
:1049480001B050EA410C0CBF52EA430C91EA030F44
:1049580002BF90EA020F0020704710F1000F91EAA1
:10496800030F58BF994208BF90422CBFD8176FEA6F
:10497800E37040F0010070474FEA410C7FEA6C5C3D
:1049880002D150EA013C07D14FEA430C7FEA6C5C44
:10499800D6D152EA033CD3D05DF8040B704700BF70
:1049A8008446104662468C461946634600E000BFBE
:1049B80001B5FFF7B7FF002848BF10F1000F01BD90
:1049C8004DF808EDFFF7F4FF0CBF012000205DF85B
:1049D80008FB00BF4DF808EDFFF7EAFF34BF0120E0
:1049E80000205DF808FB00BF4DF808EDFFF7E0FF79
:1049F80094BF012000205DF808FB00BF4DF808EDCA
:104A0800FFF7CEFF94BF012000205DF808FB00BF30
:104A18004DF808EDFFF7C4FF34BF012000205DF812
:104A280008FB00BF4FEA4102B2F1E04324BFB3F5EF
:104A3800001CDCF1FE5C0DD901F0004C4FEAC0020D
:104A48004CEA5070B2F1004F40EB830008BF20F0F1
:104A58000100704711F0804F21D113F13872BCBFAB
:104A680001F00040704741F480114FEA5252C2F100
:104A78001802C2F1200C10FA0CF320FA02F018BF49
:104A880040F001004FEAC1234FEAD32303FA0CFC9C
:104A980040EA0C0023FA02F34FEA4303CCE77FEA2B
:104AA800625307D150EA01331EBF4FF0FE4040F475
:104AB8004000704701F0004040F0FE4040F4000024
:104AC800704700BF7BB972B90029BEBF00204FF004
:104AD800004106E008BF00281CBF6FF000414FF0FE
:104AE800FF3000F03BB882B0EC462DE9005000F0F2
:104AF80005F8DDF804E002B00CBC70472DE9F04180
:104B0800069C154606460F46984600F029F805FB10
:104B180001F300FB0838A5FB0023B21A434467EBF6
:104B28000303C4E90023BDE8F08100BF2DE9F0418B
:104B3800069C904606460F461D4600F05FF900FBAE
:104B480005F5A0FB082308FB0155B21A2B4467EBB7
:104B58000303C4E90023BDE8F08100BF704700BF2C
:104B680000292DE9F043C0F2A6800026002BC0F2F0
:104B78009C80884694469E46154604460F46002B60
:104B88003DD18A4259D9B2FA82F33BB1C3F120022E
:104B98009F4020FA02F29D4017439C40290C220CAA
:104BA800B7FBF1FEA8B201FB1E7742EA074700FBFC
:104BB8000EF3BB420AD97F190EF1FF3280F005814E
:104BC800BB4240F20281AEF1020E2F44FF1AA4B29A
:104BD800B7FBF1F301FB137744EA074700FB03F047
:104BE800B84208D97F1903F1FF3280F0F080B8424B
:104BF80040F2ED80023B43EA0E43002203E08B4281
:104C08000FD900221346341C18BF012460424FF00C
:104C1800000565EB45015840514000196941BDE860
:104C2800F083B3FA83F2002A40F086808B4202D3E5
:104C3800844500F2DB800123E5E712B90123B3FBC9
:104C4800F2F5B5FA85F000283BD1781B4FEA154EEE
:104C58001FFA85FC0122B0FBFEF8210C0EFB180799
:104C680041EA07470CFB08F3BB4207D97F1908F153
:104C7800FF3102D2BB4200F2BD808846FF1AA4B2BF
:104C8800B7FBFEF30EFB137744EA07470CFB03FC64
:104C9800BC4507D97F1903F1FF3102D2BC4500F2A8
:104CA800A7800B4643EA0843ADE752426FEA06067F
:104CB80063EB43035DE7404261EB41014FF0FF3690
:104CC80054E7C0F1200224FA02F107FA00F3854004
:104CD8004FEA154ED7401943B7FBFEF20B0C0EFBFB
:104CE80012771FFA85FC43EA07430CFB02F79F4241
:104CF80004FA00F407D95B1902F1FF3074D29F421D
:104D080072D9023A2B44DF1B89B2B7FBFEF80EFBBF
:104D1800187341EA03430CFB08F79F4208D95B1953
:104D280008F1FF315CD29F425AD9A8F102082B44FE
:104D3800D81B48EA02428EE7C2F120032CFA03F19D
:104D48000EFA02FE20FA03F741EA0E0E08FA02F004
:104D580028FA03F14FEA1E453843B1FBF5F8030C76
:104D680005FB18111FFA8EF743EA014107FB08F308
:104D78008B420CFA02FC09D911EB0E0108F1FF393C
:104D880030D28B422ED9A8F102087144C91A80B2D8
:104D9800B1FBF5F305FB131140EA014107FB03F7EB
:104DA8008F4208D911EB0E0103F1FF3016D28F4262
:104DB80014D9023B714443EA0843C91BA3FB0C897D
:104DC800494509D305D000221DE79646FEE613465D
:104DD80011E794404445F6D2013BF4E70346EAE77D
:104DE8008846A5E7C846D1E702468CE713460AE796
:104DF800023B57E7A8F102082F443FE72DE9F041AD
:104E0800002B44D18A42154604464FD9B2FA82F79C
:104E18000E464FB1C7F12003B94020FA03F602FA53
:104E280007F50E4300FA07F44FEA154E230CB6FBBC
:104E3800FEF0AFB20EFB106143EA014307FB00F13D
:104E4800994209D95B1900F1FF3280F0EC80994250
:104E580040F2E98002382B445A1AA4B2B2FBFEF39E
:104E68000EFB132244EA024207FB03F7974208D9D4
:104E7800521903F1FF3180F0D880974240F2D58073
:104E8800023B43EA004000263146BDE8F0818B42F0
:104E980047D8B3FA83F6002E48D18B4202D3824218
:104EA80000F2CD8001203146BDE8F08112B901251C
:104EB800B5FBF2F5B5FA85F8B8F1000F77D14A1BC2
:104EC8004FEA154EAFB20126B2FBFEF0230C0EFBE3
:104ED800102143EA014107FB00F38B4207D9491926
:104EE80000F1FF3202D28B4200F2BA801046C91A92
:104EF800A4B2B1FBFEF30EFB131144EA014407FB15
:104F080003F7A74208D9641903F1FF3280F08F80B4
:104F1800A74240F28C80023B43EA00403146BDE89C
:104F2800F081002630463146BDE8F081C6F1200404
:104F380022FA04F5B3402B4320FA04FC01FA06F7E1
:104F480021FA04F54FEA134E4CEA0707B5FBFEF8C1
:104F5800390C0EFB18551FFA83FC41EA05450CFB7A
:104F680008F1A94202FA06F204D9ED1808F1FF3453
:104F780067D3A0466D1ABFB2B5FBFEF40EFB1455FD
:104F880047EA05410CFB04FC8C4504D9C91804F117
:104F9800FF355CD32C4644EA0844CCEB0101A4FB62
:104FA8000223994248D344D0204600266CE7C8F132
:104FB800200401FA08F305FA08F520FA04F7E1409D
:104FC8004FEA154E1F43B1FBFEF63A0C0EFB1611C5
:104FD8001FFA85FC42EA01430CFB06F29A4200FAEA
:104FE80008F407D95B1906F1FF3137D29A4235D94F
:104FF800023E2B449B1ABFB2B3FBFEF00EFB1033EC
:1050080047EA03430CFB00F1994207D95B1900F109
:10501800FF3221D299421FD902382B445A1A40EA4A
:105028000646674650E7104616E70B4629E713463B
:1050380072E7B0409042B7D2601E002624E730469F
:1050480022E7A94295D9A8F102081D4492E78C45A8
:10505800A0D9023C19449EE71046DFE70E46C9E78F
:105068000238294443E700BF10F8012B11F8013B2F
:10507800012A28BF9A42F7D0D01A704700F10803D6
:1050880043604FF0FF32C360036100238260036016
:10509800704700230361704743684B609A688A60D1
:1050A8009A6851609960086103680133036070472A
:1050B8000A68531C30B501D1036907E000F1080301
:1050C8005C682568954201D82346F9E75A684A6022
:1050D80091608B605960086103680133036030BDDB
:1050E80042688168036991608268416851605A68C2
:1050F800824204BF82685A6000220261186801383F
:105108001860704708B503F0DBFAFCE710B50E4BE2
:105118001A6850600D4A12689042044607D20C4A39
:1051280010681968BDE810400431FFF7C1BF094A8B
:10513800106819680431FFF7BBFF074B1A689442DF
:1051480038BF1C6010BD00BF600600206806002044
:105158006C060020D4050020640600202DE9F84FD5
:105168000A9E0C9C0F4615469A46814628B9644803
:10517800644940F22D2205F087FB052E05D96248C7
:10518800604940F22E2205F07FFB3CB9A80001F0EF
:10519800E3FA8346002800F0AE8000E0A3465C20D6
:1051A80001F0DAFA044688B1AD002A46C0F830B0FA
:1051B800A52158460EF06BFE236B043D1D4425F0D7
:1051C80007057B1E04F13302093705E0584601F054
:1051D80061FB90E0BB4206D013F8011F02F8011FE3
:1051E80019780029F6D1052E4FF0000BB04604F1CE
:1051F800040728BF4FF00508384684F83DB0C4F8C6
:105208002C80C4F84880C4F84CB0FFF742FF04F182
:105218001800FFF73EFFC8F10603A361C4F854B0B5
:1052280024616462C4F850B084F858B028464946EE
:10523800524601F0A9FB0B9B206003B11C6001F0F2
:10524800C5FB324A324D1368DFF8E490013313602E
:105258002B680BBB2C601268012A25D1984609EBF4
:10526800080008F11408FFF709FFB8F1780FF6D124
:10527800DFF8C0A0DFF8C0805046FFF7FFFE4046C9
:10528800FFF7FCFE2348FFF7F9FE234BC3F800A005
:10529800224BC3F8008007E0214B1B6823B92B6819
:1052A800DB6AB34298BF2C601E4A1F49136801335A
:1052B8001360E26A23640B68012404FA02F00343D2
:1052C80014200B6000FB02903946FFF7E5FE01F061
:1052D8009FFB134B1B685BB12B68DB6AB34207D299
:1052E800124B4FF080521A60BFF34F8FBFF36F8F8E
:1052F8002046BDE8F88F4FF0FF30BDE8F88F00BFBB
:105308001C3F0108273F01083C3F0108B006002068
:105318006006002070060020D40500206C060020DE
:10532800D805002084060020B406002004ED00E023
:10533800E8050020880600209C0600201FB50024F0
:105348000094019402940394164817499622234620
:10535800FFF704FF012818D101F028F8012814D11B
:105368004FF05F0383F31188BFF36F8FBFF34F8F45
:105378000E4B4FF0FF321A600D4B18600D4B1C603E
:1053880004B0BDE8104001F0AFBB40B90A480B4972
:1053980040F2516204B0BDE8104005F075BA04B09F
:1053A80010BD00BF0D5100089F3F01086406002092
:1053B800D805002068060020A43F0108273F0108FF
:1053C800024A136801331360704700BFDC050020F0
:1053D800014B1868704700BF680600202DE9F047A8
:1053E8003E4B3F4A196811603E4A1268002A46D16E
:1053F8001A683D4E01321A601F68F7B93B4C2368A2
:105408001B682BB13A483B4940F2AA7205F03CFAB6
:10541800394B2268196821601A60384A13680133C9
:10542800136023681B6813B94FF0FF3304E02F4B58
:105438001B68DB68DB685B6833603368DFF8CC8047
:10544800DFF8CC909F424FF000040DD3274B1A6829
:10545800126812B94FF0FF3305E01B68DB68DD689E
:105468006B689F4211D23360D9F80030DA6A14238E
:10547800534358F80330022B28BF012425E0204A63
:1054880013680133136000241FE005F1040A504635
:10549800FFF726FEAB6A1BB105F11800FFF720FEE7
:1054A8001848E96A026801238B40134303601420FB
:1054B80000FB01805146FFF7EFFDD9F80030EA6A9A
:1054C800DB6A9A4228BF0124C0E70F4B1B68002BF8
:1054D80018BF01242046BDE8F08700BF68060020F9
:1054E800080000E0DC05002064060020D405002048
:1054F800AC3F0108273F01086C060020E0050020AA
:10550800E4050020B4060020B8060020E8050020C5
:105518006006002070B52E4C23682BB92D482E4903
:1055280040F28E6205F0B0F901F050FA2368013BB1
:10553800236023680BB1002445E0284B1B68002B2F
:10554800F9D0274B1A680AB3DB68DC68261D04F11A
:105558001800FFF7C5FD3046FFF7C2FD2149E26A92
:105568000B68012505FA02F003430B601E4B14205B
:1055780000FB02303146FFF78FFD1C4BE26A1B68C7
:10558800DB6A9A4224BF1A4B1D60DAE7194C23687C
:10559800ABB9174B1C68012CCDD1174B4FF080527B
:1055A8001A60BFF34F8FBFF36F8F0CE0FFF716FF42
:1055B80010B10F4B01221A602368013B2360236856
:1055C800002BF3D1E5E701F023FA204670BD00BFB8
:1055D800DC050020D73F0108273F0108B00600205E
:1055E80070060020B4060020E805002060060020B0
:1055F800B8060020E405002004ED00E038B50C46AC
:10560800054628B92548264940F23F3205F03CF9BD
:105618002CB9244822494FF4507205F035F9224B31
:105628001B682BB121481E4940F2413205F02CF984
:10563800FFF7C6FE1E4B2A681B689342144402D229
:10564800944207D201E0944206D39C4294BF0023BF
:10565800012302E0002300E001232C608BB1154DEB
:1056680028680430FFF73CFD40B92B681249D86A16
:105678000A680123834022EA03030B602046FFF7F0
:1056880045FDFFF747FF38B90C4B4FF080521A60C1
:10569800BFF34F8FBFF36F8F38BD00BFEC3F0108DA
:1056A800273F0108FF3F0108DC05002017400108DB
:1056B8006806002060060020B406002004ED00E023
:1056C80038B5044640B9174B4FF080521A60BFF303
:1056D8004F8FBFF36F8F38BD134B1B682BB1134827
:1056E800134940F2A33205F0CFF8FFF769FE114DD8
:1056F800114B1B68286804301C44FFF7F1FC40B9C3
:105708002B680E49D86A0A680123834022EA0303FA
:105718000B602046FFF7FAFCFFF7FCFE0028D2D00A
:1057280038BD00BF04ED00E0DC050020174001088B
:10573800273F01086006002068060020B406002004
:1057480038B50D46044608B9044B1C6801F03EF90B
:105758002565BDE8384001F05BB900BF6006002050
:1057680070B51E4B1A681E4B0AB1012233E01D4E5C
:105778001A603268336812681B6B9A4204D8306822
:105788003168343102F020FE174B1C68B4FA84F4F7
:10579800E4B2C4F11F041423144D6343EB582BB92E
:1057A8001348144940F6C80205F06EF8142202FBAB
:1057B80004F3E91808334868406848602B44984265
:1057C80004BF43684B6002FB04546368DB683360C2
:1057D80033685A6B084B1A6070BD00BFDC050020A7
:1057E800B806002060060020B4060020E805002066
:1057F80031400108273F0108040000E070B50E465B
:10580800054628B91048114940F6DA0205F03CF877
:105818000F4C216828461831FFF74AFC20680430ED
:10582800FFF75EFC40B923680A49D86A0A68012371
:10583800834022EA03030B60074B18683044BDE835
:105848007040FFF763BC00BF78400108273F01089C
:1058580060060020B40600206806002070B50E46D9
:10586800054628B91048114940F6591205F00CF8B8
:105878000F4C216828461831FFF70EFC20680430C9
:10588800FFF72EFC40B923680A49D86A0A68012341
:10589800834022EA03030B60074B18683044BDE8D5
:1058A8007040FFF733BC00BF78400108273F01086C
:1058B80060060020B40600206806002038B5C368DA
:1058C800DC682CB91648174940F6B41204F0DCFF1E
:1058D80004F118052846FFF703FC134B1B687BB936
:1058E800251D2846FFF7FCFB1048E16A02680123E2
:1058F8008B40134303600E4B142000FB013000E083
:105908000C482946FFF7C8FB0B4BE26A1B68DB6AA9
:105918009A4283BF094B01201860002038BD00BFA0
:105928009E400108273F0108DC050020B40600203E
:10593800E80500207006002060060020B806002058
:1059480010B5044628B90648064940F6142204F062
:105958009BFF054B1B682360044B1B68636010BDED
:10596800CD400108273F0108E00500206806002017
:1059780038B50D46044628B91448154940F61E2284
:1059880004F082FF2DB91348114940F61F2204F094
:105998007BFF01F01BF8104B1968104B1A6823683D
:1059A8009A42636801D099420BD22A68C81A904279
:1059B80007D25B1A134420462B60FFF7C1FF00246F
:1059C80000E0012401F024F8204638BDCD4001084C
:1059D800273F0108D740010868060020E00500209D
:1059E800014B01221A607047B8060020054B1B685E
:1059F80033B1054B1B68002B0CBF022000207047F9
:105A080001207047D8050020DC0500202DE9F04171
:105A18000446002838D01D4DC36A2A68D26A9342CA
:105A280032D282691A4E002AA1BF2A68D26AC2F10C
:105A3800060282611427426907FB03639A4220D158
:105A480000F104084046FFF74BFB124B48B9E06AE7
:105A58004743F2592AB919680122824021EA020211
:105A68001A602A68D26AE26201201C6890402043CA
:105A78001860142000FB02604146BDE8F041FFF7C2
:105A88000BBB2B68DB6AC362BDE8F08160060020AF
:105A9800E8050020B406002070B5044608B90020C7
:105AA80070BD204B1B68984205D01F481F4940F61F
:105AB800A75204F0E9FEE36C2BB91D481B4940F6D8
:105AC800A95204F0E1FEE36CE16AA26C013B914249
:105AD800E364E4D0002BE2D1251D2846FFF700FB44
:105AE8001449154A50B9E66A14237343CB582BB9A5
:105AF80010680123B34020EA03031360A36CE36238
:105B0800C3F10600A0611068012404FA03F63043CB
:105B18001060142000FB03102946FFF7BDFA204649
:105B280070BD00BF60060020E5400108273F01085E
:105B3800FB400108E8050020B4060020044B1A6861
:105B48001AB11968CA6C0132CA641868704700BF74
:105B58006006002038B51546026C044632B905685F
:105B680045BB4068FFF798FF656024E06DB9806821
:105B78000EF082F9A268236C13446268A360934212
:105B880018D32368A360284615E0C0680EF074F99E
:105B9800236CE26821685B421A448A42E2603EBF95
:105BA80062689B18E360022D04D1A36B13B1A36B49
:105BB800013BA3630020A36B0133A36338BD10B579
:105BC800026C03466AB1C4681444C46040688442E5
:105BD80024BF1868D860BDE810400846D9680EF0A0
:105BE8004BB910BD10B5044600F0F0FEA36C002BB5
:105BF8000CDD636A53B104F12400FFF75FFE08B1BE
:105C0800FFF7EEFEA36C013BA364EFE74FF0FF3311
:105C1800A36400F0FDFE00F0D9FE636C002B0CDDE0
:105C2800236953B104F11000FFF748FE08B1FFF7EC
:105C3800D7FE636C013B6364EFE74FF0FF336364A7
:105C4800BDE8104000F0E4BE38B50D46044628B95A
:105C58001A481B494FF4847204F016FE00F0B6FE91
:105C6800216CE36B2268A2604B43D0185B1A134483
:105C78006060E36000204FF0FF33A0636364A364B7
:105C880085B92369B3B104F11000FFF717FE0128A5
:105C980010D10C4B4FF080521A60BFF34F8FBFF3F7
:105CA8006F8F07E004F11000FFF7E8F904F1240012
:105CB800FFF7E4F900F0ACFE012038BD5C410108B3
:105CC8006441010804ED00E0F8B50D4617460646A4
:105CD80028B91448144940F2431204F0D5FD1DB107
:105CE80005FB06F0013000E02846543000F034FD92
:105CF800044670B10DB9206002E000F1540303605E
:105D0800E663256420460121FFF79EFF84F8507062
:105D180005E00648044940F27F1204F0B5FD20462C
:105D2800F8BD00BF7941010864410108A43F01089A
:105D38002DE9FF410F4601921E46044628B95948ED
:105D4800594940F2672204F09FFD1FB9236C002BCC
:105D580040F09080022E03D1E36B012B40F091803C
:105D6800FFF744FE18B9019B002B40F091804FF0DB
:105D7800000800F02BFEA26BE36B9A4201D3022EBF
:105D88001FD1E36C494A43F48073136020463946B7
:105D98003246FFF7DFFE636A33B104F12400FFF7F0
:105DA8008DFD012809D100E038B1414B4FF08052F8
:105DB8001A60BFF34F8FBFF36F8F00F029FE0120E9
:105DC8006DE0019D15B900F023FE4CE0B8F1000F1D
:105DD80002D102A8FFF7B4FD00F01AFEFFF7F0FAAF
:105DE80000F0F4FD636C013304BF00236364A36C0B
:105DF800013304BF0023A36400F00AFE02A801A92E
:105E0800FFF7B6FD50BB00F0E1FDD4F83880E56B34
:105E180000F0FEFDA8451BD1E36C244A43F48063DF
:105E2800136004F110000199FFF7E8FC2046FFF722
:105E3800D9FEFFF76FFB10B14FF0010899E71C4B33
:105E48004FF080521A60BFF34F8FBFF36F8FF3E7A5
:105E58002046FFF7C7FEFFF75DFBEDE72046FFF79B
:105E6800C1FEFFF757FBE36C104A43F4007313605D
:105E7800002014E00F480C494FF41A7204F004FD96
:105E880068E70D48084940F2692204F0FDFC67E71D
:105E98000A4805494FF41B7204F0F6FC67E704B0A2
:105EA800BDE8F0815C410108644101080C0000E094
:105EB80004ED00E09B410108EB4101083242010872
:105EC80070B50646542000F047FC0446D8B10123BB
:105ED8000025C3634FF0FF33856345604364056065
:105EE80083648560C560056480F850601030FFF7F2
:105EF800C5F804F12400FFF7C1F8204629462A46D0
:105F08002B46FFF715FF204670BD00002DE9F04134
:105F18000E4690461D46044628B92748274940F2B0
:105F2800244204F0B1FC0EB9236C9BBB022D02D1B4
:105F3800E36B012B35D100F049FEEFF311874FF0E9
:105F48005F0383F31188BFF36F8FBFF34F8FA26B8B
:105F5800E36B9A4201D3022D1AD1204631462A46D4
:105F6800FFF7F8FDA36C01330DD1636A73B104F137
:105F78002400FFF7A3FC48B1B8F1000F06D00120B8
:105F8800C8F8000014E0A36C0133A36401200FE0FB
:105F980000200DE00A48094940F2254204F074FC4B
:105FA800C4E70848054940F2264204F06DFCC2E700
:105FB80087F31188BDE8F0815C410108644101085C
:105FC8009B410108EB41010870B50D46044628B90C
:105FD8002148224940F2BF4204F056FC236C2BB101
:105FE8001F481E4940F2C34204F04EFC23680BB917
:105FF80063683BBB00F0EAFDEFF311864FF05F03E7
:1060080083F31188BFF36F8FBFF34F8FA26BE36BDE
:106018009A4215D2A36B0133A363A36C01330AD14F
:10602800636A5BB104F12400FFF748FC30B12DB17D
:10603800012028600DE0A36C0133A364012008E06F
:10604800002006E0074805494FF4996204F01CFC5B
:10605800D0E786F3118870BD5C41010864410108EE
:1060680088420108A14201082DE9FF410E4601922C
:106078009846044628B95648564940F25B5204F0FF
:1060880003FC1EB9236C002B40F09080FFF7AEFC98
:1060980018B9019B002B40F09080002700F096FC77
:1060A800A36B63B320463146E568FFF788FDB8F176
:1060B800000F10D1A36B013BA363236813B9FFF74B
:1060C8003DFD60602369B3B104F11000FFF7F6FBF2
:1060D800012810D107E0636AE56063B104F1240088
:1060E800FFF7ECFB38B13C4B4FF080521A60BFF31E
:1060F8004F8FBFF36F8F00F08BFC012064E0019D90
:1061080015B900F085FC4FE017B902A8FFF718FC95
:1061180000F07EFCFFF754F900F058FC636C013383
:1061280004BF00236364A36C013304BF0023A3648A
:1061380000F06EFC02A801A9FFF71AFC78BB00F07A
:1061480045FCA56B00F064FC1DBBE36C234A43F4DB
:1061580040731360236833B900F038FC6068FFF7B8
:1061680055FC00F055FC04F124000199FFF746FBAB
:106178002046FFF737FDFFF7CDF908B101278DE776
:10618800154B4FF080521A60BFF34F8FBFF36F8FDC
:10619800F4E72046FFF726FDFFF7BCF9EEE72046B7
:1061A800FFF720FDFFF7B6F900200DE00C4809497C
:1061B80040F25C5204F068FB68E70A48054940F27F
:1061C8005F5204F061FB68E704B0BDE8F08100BFEE
:1061D8005C4101086441010804ED00E00C0000E0A6
:1061E800FC42010832420108F8B50E46174604463B
:1061F80028B91D481D4940F2156204F045FB0EB947
:10620800236C3BBB00F0E2FCEFF311854FF05F031A
:1062180083F31188BFF36F8FBFF34F8FA06B00B369
:1062280020463146FFF7CBFCA36B013BA363636CAD
:1062380001330AD123695BB104F11000FFF73EFB7B
:1062480030B12FB1012038600BE0636C0133636417
:10625800012006E00648054940F2166204F014FBE6
:10626800D0E785F31188F8BD5C4101086441010855
:10627800FC42010810B5044628B9064806494FF4FF
:10628800D46204F001FB00F0A1FBA46B00F0C0FB9A
:10629800204610BD5D4101086441010830B5002366
:1062A800064A52F8335002EBC3041DB942F83310C2
:1062B800606030BD01330A2BF2D130BDC06B0020C5
:1062C80070B504460E46154600F080FB636C01333A
:1062D80004BF00236364A36C013304BF0023A364D9
:1062E80000F096FBA36B2BB904F1240031462A4633
:1062F800FFF7B4FA2046BDE87040FFF773BC000012
:10630800F8B5134C00F062FB2568EDB9114F124E39
:106318003846FEF7B3FE3046FEF7B0FE0F4B1F605F
:106328000F4B14200C212A461E60FFF7CDFC20607D
:1063380028B90C480C4940F21A3204F0A5FA206832
:1063480010B10A49FFF7AAFFBDE8F84000F060BBAA
:10635800EC060020C0060020D4060020BC06002061
:10636800F0060020604301086C43010882430108DD
:1063780010B5044691424160206105D8D21A83695C
:106388009A420CD2074B04E09A4201D2994206D2B3
:10639800054B1868211DFEF78BFE002010BD01205B
:1063A80010BD00BFF0060020BC0600201FB5FFF797
:1063B800A7FF0D4B1B683BB90C480D494FF487727A
:1063C80004F062FA00200CE00123009300230193FB
:1063D80002930393074808499622FEF7BFFE002858
:1063E800EAD005B05DF804FBEC060020A43F0108E4
:1063F8006C43010835650008874301082DE9F04121
:10640800804617461E460D4689B12C2000F0A4F997
:10641800044698B1FFF774FF069BC4F80080A56195
:10642800E76126626362201DFEF733FE06E0054839
:1064380005494FF49B7204F027FA2C462046BDE824
:10644800F08100BF8F4301086C4301082DE9FF412B
:106458000D4690461F46064628B91348134940F290
:10646800411204F011FA124C2068C8B1052D0195AB
:10647800CDF8088003960EDCFFF7B8FA022818BF9B
:106488000022206808BF0A9A01A90CBF00231346FE
:10649800FFF74EFC04E001A93A460023FFF736FD5A
:1064A80004B0BDE8F08100BFAB4301086C430108AC
:1064B800EC060020F7B5194D2B681A683AB3DB686B
:1064C800DC681E68271D3846FEF70AFE636A204608
:1064D8009847E369012BEED1A3693344B34206D947
:1064E8006360246128683946FEF7E2FDE3E700218E
:1064F8000091204632460B46FFF7A8FF0028DAD164
:10650800074808494FF43F7204F0BEF9D3E7064A3A
:1065180011682960136003B0F0BD00BFBC060020FD
:10652800B24301086C430108F00600202DE9F0474A
:1065380086B0DFF8ACA1DAF800301C68B4FA84F44D
:1065480064091CB9DB68D3F8008001E04FF000084B
:106558005C4DFEF735FFFEF73BFF2B6898428146FE
:106568002F4603D2FFF7A6FF012300E00023C5F85A
:106578000090554E002B42D144BBC8452DD8FEF79C
:10658800C9FFDAF80030DB68DD68281DFEF7A8FDD2
:10659800EB69012B16D1A969284641444A4643466E
:1065A800FFF7E6FE01280DD1009428462146424611
:1065B8002346FFF74BFF28B94448454940F2931258
:1065C80004F062F96B6A284698471EE0414B1B6845
:1065D8001C68B4FA84F2520900E022463068C9EB1C
:1065E8000801FFF76DFEFEF795FF70B93A4B4FF0C3
:1065F80080521A60BFF34F8FBFF36F8F05E0FEF72D
:1066080089FF02E0039B002B08DA0022306803A907
:106618001346FFF729FD0028F4D18AE7059C636932
:1066280013B1201DFEF75CFDFEF7D2FE3B689842D1
:10663800054601D2FFF73EFF039A3D60092AE4D8D8
:106648000123934013F404782AD113F0C70F05D11E
:106658009B06DAD5204600F01DF9D6E7049BA16910
:10666800204619442A46FFF783FE0128CDD1636AE4
:1066780020469847E369012BC7D1A269049BCDF84E
:1066880000801A44204641464346FFF7DFFE0028B3
:10669800BBD10E480E494FF4287204F0F5F8B4E760
:1066A800049BA3612BB90D48094940F2B72204F0B5
:1066B800EBF8A169204629442A462B46FFF758FEE5
:1066C800A3E700BFE8060020EC060020B24301085B
:1066D8006C430108F006002004ED00E0BA4301080D
:1066E800BC06002010B5044628B9064806494FF4F0
:1066F800537204F0C9F800F069F9246A00F088F9C7
:10670800204610BDAB4301086C43010810B5104B7F
:106718001A68824201D21346FAE759685C18844223
:1067280001BF4068091818465960416844189442E6
:1067380009D1084C2468A2421FBF526889184160D9
:106748001A6818BF12680260834218BF186010BD2B
:10675800FC060020F80600202DE9F8430446FEF761
:106768002FFE4249424D0B68FBB9424A424E500740
:106778001FBF0732414B22F007029B1A08BF45F2A0
:10678800F0531344083B23F0070300207060326085
:10679800586018600B60981A1360394B5060186085
:1067A800384B18604FF000432B602B681C424BD1CC
:1067B800002C47D0083462071CBF24F007040834B3
:1067C800002C3FD02F4B1A68944298463CD82A4B4D
:1067D8001E687268A24203D30A68964206D133E063
:1067E8003268002AF8D033461646F2E732681F6846
:1067F8001A6073681B1B102B07F1080711D906EBE9
:10680800040919F0070F04D01F482049E82204F0B2
:106818003BF873681B1BC9F8043048467460FFF7DF
:1068280075FF17497268D8F8003008689B1A8342C8
:10683800C8F8003038BF0B602B681A430023726019
:10684800336002E0274600E00027FEF763FE0FB939
:1068580001F0A0FD7B0705D00D480C494FF4947258
:1068680004F012F83846BDE8F88300BFF8060020A7
:10687800F45C002004070020FC060020F45C0020E3
:10688800F85C0020F4060020DF43010820440108DA
:106898004744010838B5044688B3194B50F8042C0E
:1068A800196811421D4605D1164817494FF49E72C2
:1068B80003F0EAFF54F8083C2BB11448124940F29F
:1068C8003D1203F0E1FF54F8043C2A681A4216D03E
:1068D80054F8081C99B923EA020344F8043CFEF76B
:1068E8006FFD0B4A54F8041C1368A4F108000B440C
:1068F8001360FFF70BFFBDE83840FEF70BBE38BD4D
:10690800F45C00208444010820440108B5440108CF
:10691800F4060020014B1868704700BFF4060020F9
:1069280006480068006880F3088862B661B6BFF35D
:106938004F8FBFF36F8F00DF00BF000008ED00E04E
:10694800DFF80C00016841F4700101607047000035
:1069580088ED00E008B5094B1B68013305D00848ED
:10696800084940F2071203F08FFF4FF05F0383F3EB
:106978001188BFF36F8FBFF34F8FFEE70000002031
:10698800D5440108EF4401084FF0807300E90A007C
:10699800054B40F80C3C6FF0020340F8202C40F8FF
:1069A800243C4438704700BF5D690008064B1968ED
:1069B8000868B0E8F04F80F30988BFF36F8F4FF095
:1069C800000080F311887047600600204FF05F03D5
:1069D80083F31188BFF36F8FBFF34F8F084A136893
:1069E8000133012B13600AD1064B1B6813F0FF0F0C
:1069F80005D00548054940F29F1203F045BF70478E
:106A08000000002004ED00E035450108EF440108CE
:106A180010B5084C23682BB9074808494FF4D372BE
:106A280003F032FF2368013B23600BB983F311881D
:106A380010BD00BF000000206A450108EF440108AE
:106A4800EFF30980BFF36F8F144B1A681EF0100F15
:106A580008BF20ED108A20E9F04F10604DF8043D82
:106A68004FF05F0080F31188BFF34F8FBFF36F8F34
:106A7800FEF776FE4FF0000080F3118808BC196815
:106A88000868B0E8F04F1EF0100F08BFB0EC108A8D
:106A980080F30988BFF36F8F704700BF600600203E
:106AA80008B5EFF311834FF05F0282F31188BFF34B
:106AB8006F8FBFF34F8FFEF791FC18B1034B4FF068
:106AC80080521A60002383F3118808BD04ED00E0AA
:106AD800034B044A1A60072243F8042C704700BF8E
:106AE80014E000E03F90020013B52C4B2C4A1968C3
:106AF80091421C4605D12B482B4940F23D1203F028
:106B0800C3FE2268294B9A4205D1294826494FF4E9
:106B18009F7203F0B9FE274B1A78D2B20192FF2276
:106B28001A701B78244ADBB28DF803309DF80330C5
:106B380003F05F031370214A072313609DF80310C5
:106B4800090603F1FF3007D59DF803305B00DBB27F
:106B58008DF803300346F1E71B0203F4E06313608A
:106B6800019B144ADBB21370154B1A6842F47F027A
:106B78001A601A6842F07F421A60FFF7A9FF114BAA
:106B880000221A60FFF7DCFE0F4A136843F0404307
:106B98001360FFF7C5FEFFF7DDFE00BF00ED00E064
:106BA80071C20F417C450108EF44010870C20F41D2
:106BB8009F45010800E400E0FC5C0020005D002027
:106BC80020ED00E00000002034EF00E008B5EFF30E
:106BD80005830F2B0BD90E4A9B5C0E4A12789A42FA
:106BE80005D90D480D494FF4387203F04DFE0C4B92
:106BF8000C4A1B68126803F4E063934207D90A48F9
:106C080006494FF43C72BDE8084003F03DBE08BD9C
:106C1800F0E300E0FC5C0020C2450108EF440108F5
:106C28000CED00E0005D0020EC45010808B54FF4CC
:106C38008070012100F04CFB4FF480700021BDE80A
:106C4800084000F045BB0000436823F040720B6821
:106C580022F4807213430A7943EA022343600B69E2
:106C6800CA681A438B6810B51A438468084B2340D6
:106C780013434A7943EA42038360C36A23F47002E8
:106C88000B7D013BDBB242EA0353C36210BD00BF78
:106C9800FDF7FFC000230360037143718360C36085
:106CA800036101230375704710B5074C074B6268F1
:106CB800134090E80600114382681143C2680A43F2
:106CC8001343636010BD00BF00230140E030FCFFA8
:106CD8000023036043608360C3607047836811B119
:106CE80043F0010301E023F00103836070470000D3
:106CF800044BDA6809B1104301E022EA0000D860C9
:106D0800704700BF002004E0036823F0010303601C
:106D18000023036043608360C360036121234361F0
:106D2800294B984217D0294B98421BD0284B9842A0
:106D380020D0284B984225D0274B98422AD0274B61
:106D480098422ED0264B984232D0264B984236D0C5
:106D5800254B984203D13D2243F8082C7047234B1A
:106D6800984204D14FF4746243F8202C7047204BAA
:106D7800984204D14FF4741243F8382C70471D4BD5
:106D8800984204D14FF0746243F8502C70471A4B64
:106D9800984203D1194A43F8642C7047184B98421B
:106DA80003D1184A43F87C2C7047174B984203D1FB
:106DB800164A43F8942C7047154B984203D14FF06C
:106DC8003D5243F8AC2C70471060024028600240E6
:106DD8004060024058600240706002408860024093
:106DE800A0600240B860024010640240286402407B
:106DF8004064024058640240706402403D00002034
:106E080088640240400F0020A064024000003D203A
:106E1800B86402400268134B10B51340CC680A6886
:106E280014434A6914438A691443CA6914430A6AB1
:106E380014434A6A14438A6A14434A6B14438A6B9C
:106E480022431343036043690C6B23F00702CB6AA8
:106E58002343134343610B6943604B6883608B682A
:106E6800C36010BD3F801CF0036811B143F00103FB
:106E780001E023F0010303607047416070474068F8
:106E880080B27047006800F0010070470B0611D50A
:106E980043694AB143F080038029436114D00368F1
:106EA80001F01E0119430EE023F08003802943619D
:106EB80004D17047802907D0002AF0D1036801F077
:106EC8001E0123EA0101016070470000104A114BBE
:106ED80010B5114CA04294BF1C46144621F0F02373
:106EE80023F0C3122AB1006800F01E0000EAD12284
:106EF80002E0406900F0800289004CBF60682068A9
:106F080023F08213184002D0101C18BF012010BDB6
:106F180000640240006002400F64024010B5084A55
:106F2800084B094CA04294BF1846104611F0005F68
:106F380021F0F02121F0821114BFC160816010BDE1
:106F480000640240006002400F640240837910B57B
:106F58000468002B31D01E4B196821EA04021A601C
:106F68005A68016822EA01025A600279016802F14E
:106F7800804202F59E321468214311609A680168C4
:106F880022EA01029A60DA68016822EA0102DA60FC
:106F980042790168102A0BBF9A6802F180431143B5
:106FA80003F59E3303BF9960D96802681A680BBF5E
:106FB8000A431143DA60196010BD037903F1804375
:106FC80003F59E331A6822EA04021A6010BD00BF56
:106FD800003C0140014B5861704700BF003C014034
:106FE800034B5B69184214BF01200020704700BFA3
:106FF800003C0140014B5861704700BF003C014014
:10700800F0B5002201230C6893401C409C4229D112
:10701800550003230668AB40DB431E4006600E792B
:107028000768AE403E4306600E79013E012E11D836
:1070380086681E4086604E798768AE403E4386600B
:10704800466826EA040444608C7946689440A4B2F1
:1070580034434460C4682340C360CB79C468AB4000
:107068002343C3600132102ACCD1F0BD4FF6FF7321
:1070780003600023037143718371C371704703690F
:10708800194214BF012000207047018370474183D3
:10709800704710B501F00703C90800EB81009B0099
:1070A800046A0F21994024EA01010162016A9A40A9
:1070B8001143016210BD00007FB5868826F03F06A7
:1070C8000446360468460D46360C00F081F8029AEC
:1070D8002C48B2FBF0F081B20E43A68023882A4EDA
:1070E80023F001031B041B0C23802B68B3420AD82E
:1070F8005B000131B2FBF3F39BB2032B89B298BF5B
:107108000423218423E0EE884BF6FF718E421BBFD7
:1071180019214B4303EB4303B2FBF3F315BF9BB2B7
:10712800B2FBF3F343F480439BB2C3F30B020AB9F7
:1071380043F001034FF4967101FB00F24FF47A71AA
:1071480092FBF1F2013292B243F400432284A3830A
:1071580023889BB243F00103238023886989AA8886
:1071680023F4816323F002031B040A431B0C13431B
:107178009BB223802A89AB8913439BB2238104B035
:1071880070BD00BF40420F00A0860100014B18608F
:10719800704700BF00300040014B5860704700BF87
:1071A80000300040014B9860704700BF003000403D
:1071B800024B4AF6AA221A60704700BF003000400E
:1071C800024B4CF6CC421A60704700BF00300040BA
:1071D80010B51D4A936803F00C03042B03D0082B49
:1071E80003D01A4B18E01A4B16E05168536811F493
:1071F800800F03F03F03516814BF154A134AB2FBCE
:10720800F3F3114A5268C2F30142C1F38811013203
:107218004B435200B3FBF2F30B4A036093680D49EA
:10722800C3F30313CC5C0368E34043609468C4F37E
:1072380082240C5D23FA04F484609268C2F342321B
:107248008A5CD340C36010BD003802400024F400BB
:1072580000127A0004000020044B1A6B09B1104395
:1072680001E022EA00001863704700BF00380240BE
:10727800044B5A6B09B1104301E022EA000058633D
:10728800704700BF00380240044B1A6C09B1104324
:1072980001E022EA00001864704700BF003802408D
:1072A800044B5A6C09B1104301E022EA000058640B
:1072B800704700BF00380240044B1A6A09B11043F6
:1072C80001E022EA00001862704700BF003802405F
:1072D800044B5A6A09B1104301E022EA00005862DF
:1072E800704700BF003802404209012A074B01D10C
:1072F8001B6803E0022A0CBF1B6F5B6F00F01F00C6
:1073080023FA00F000F00100704700BF0038024087
:10731800024A536F43F08073536770470038024046
:1073280008B5474B984205D101200146FFF7D0FF29
:1073380001203DE0B0F1804F05D101200146FFF763
:10734800BBFF012076E03F4B984205D10220012186
:10735800FFF7B2FF02206DE03B4B984205D10420B5
:107368000121FFF7A9FF042064E0384B984205D1BA
:1073780008200121FFF7A0FF08205BE0344B98426A
:1073880005D110200121FFF797FF102052E0314B63
:10739800984205D120200121FFF78EFF202049E0E7
:1073A8002D4B984209D102200121FFF791FF0220BD
:1073B8000021BDE80840FFF78BBF284B984207D152
:1073C8004FF480300121FFF783FF4FF48030EFE75F
:1073D800234B984207D14FF400300121FFF778FF83
:1073E8004FF40030E4E71F4B984207D14FF4802058
:1073F8000121FFF76DFF4FF48020D9E71A4B98421F
:1074080005D140200121FFF757FF402012E0174B1C
:10741800984205D180200121FFF74EFF802009E026
:10742800134B98420BD14FF480700121FFF744FFB2
:107438004FF480700021BDE80840FFF73DBF08BD4C
:10744800000001400004004000080040000C00401B
:1074580000100040001400400004014000400140BA
:10746800004401400048014000180040001C004052
:10747800002000401C4A038890429BB212D002F5BB
:10748800806290420ED0B0F1804F0BD0A2F58032CE
:10749800904207D002F58062904203D002F58062E4
:1074A800904203D14A8823F0700313430F4A904255
:1074B80008D002F5806290421FBF23F440730A8906
:1074C8009BB2134303804B68C3620B880385064B4A
:1074D800984203D003F58063984201D18B7A0386E2
:1074E80001238382704700BF000001400010004064
:1074F8004FF0FF334360002303800381438083728E
:107508007047018582827047038819B19BB243F0A6
:10751800010303E023F001031B041B0C03807047E5
:10752800038C23F001031B041B0C0384038C70B52C
:107538008488028B0E8822F073021204120C23F046
:10754800020516434B888A892D0413430F4A2D0CD4
:107558002B439042A4B29BB203D002F580629042C2
:107568000ED1CA894D8A23F0080313438A8823F071
:10757800040313430A8A24F4407415432C43A4B229
:10758800848006838A684263038470BD00000140DA
:10759800038C23F010031B041B0C0384038C30B5ED
:1075A8008588028B0C8822F4E6421204120C42EA07
:1075B800042223F0200394B21B048A891B0C43EA9B
:1075C80002134A8843EA0213124A9042ADB29BB2B0
:1075D80003D002F58062904215D123F08003CA8956
:1075E8009BB243EA02124FF6BF7313408A8843EAFC
:1075F80002130A8A25F4406545EA82054A8A45EA63
:1076080082059BB2ADB2858004838A688263038455
:1076180030BD00BF00000140038C23F480731B04BD
:107628001B0C0384038C30B58488828B0D8822F070
:1076380073021204120C23F4007315431B048A8985
:107648001B0C43EA02234A8843EA0223124A904267
:10765800A4B29BB203D002F58062904215D123F404
:107668000063CA899BB243EA02224FF6FF331340F4
:107678008A8843EA02230A8A24F4405444EA02141A
:107688004A8A44EA02149BB2A4B2848085838A6839
:10769800C263038430BD00BF00000140038C23F4A3
:1076A80080531B041B0C0384038C30B58488828BA5
:1076B8000D8822F4E6421204120C23F4005342EA25
:1076C80005221B048D891B0C43EA05334D8843EAC8
:1076D80005330B4DA842A4B292B29BB203D005F574
:1076E8008065A84205D10D8A24F4804444EA8514B3
:1076F800A4B2848082838A680264038430BD00BF98
:10770800000001404163704781637047C16370475F
:1077180001647047038B23F008031B041B0C1943F7
:1077280001837047038B23F400631B041B0C43EA9B
:10773800012189B201837047838B23F008031B045E
:107748001B0C194381837047838B23F400631B044C
:107758001B0C43EA012189B281837047406B704753
:10776800806B7047C06B7047006C7047B0F844304E
:1077780029B16FEA43436FEA53439BB201E0C3F375
:107788000E03A0F84430704783899BB20AB11943AD
:1077980001E023EA01018181704700007FB5038A77
:1077A800CA889BB223F440531343038283890E464D
:1077B8009BB223F4B053098923F00C02B3880B431E
:1077C80071890B439BB213438381838AB2899BB22D
:1077D80023F440731343838204466846FFF7F8FC9A
:1077E8001A4B9C4203D003F580639C4201D1039D50
:1077F80000E0029DA38931681BB2002B4FF01902EB
:1078080002FB05F2B4BF4D008D00B2FBF5F5A2896D
:107818006426B5FBF6F00001010912B2002A06FB46
:107828001153ADBF1A01D90032313232B5BFB1FBA5
:10783800F6F2B2FBF6F302F0070203F00F03B4BF4F
:107848001043184380B2208104B070BD001001407D
:10785800838919B19BB243F4005303E023F4005326
:107868001B041B0C83817047C1F30801818070479A
:107878008088C0F308007047838A9BB20AB1194315
:1078880001E023EA01018182704710B5C1F3421477
:10789800012301F01F01012C03FA01F301D10C307F
:1078A80003E0022C0CBF1030143012B102681343ED
:1078B80002E0026822EA0303036010BDC94389B2EB
:1078C80001807047012310B5C1F3421401F01F0273
:1078D8009C4203FA02F201D1838903E0022C0CBF17
:1078E800038A838A9BB21340028892B23BB1090A89
:1078F80001238B40134214BF0120002010BD1846FD
:1079080010BD090A01238B40DB439BB203807047FB
:1079180040F0BF60024B40F40030D860704700BFB1
:1079280000ED00E0C278037810B512B3164AD168AA
:107938004278C943C1F30221C1F10404E4B2A24070
:10794800D4B20F220A4181780A40224303F16043EE
:1079580003F561431201D2B283F8002303780122B0
:10796800590903F01F0302FA03F3084A42F82130C9
:1079780010BD5A09012103F01F03994002F12003A9
:10798800024A42F8231010BD00ED00E000E100E0DB
:1079980010B501F0030301F0FC0101F1804101F58C
:1079A8009C319B008C680F229A4024EA02028A606C
:1079B8008A68984002438A6010BD08B505F0B8FD92
:1079C80000F036FDFDF7BAFC05F0DAFD00200121D4
:1079D80005F0D0FD0120014605F0CCFDFEE708B515
:1079E8004FF48060FFF7FCFA012803D14FF4806060
:1079F800FFF700FBBDE8084007F0A2BB4FF440705A
:107A0800FFF786BF08B5FFF74BF8BDE8084003F05D
:107A180033BC70471EF0040F0CBFEFF30880EFF380
:107A2800098000F001B870472DE9F84FD0F800B090
:107A3800D0F804A0D0F80890D0F80C8007694669FF
:107A48008569C4692549264803F05CF82549244816
:107A58005A4603F057F824492148524603F052F891
:107A680022491F484A4603F04DF821491C4842461E
:107A780003F048F81F491A483A4603F043F81E49EC
:107A88001748324603F03EF81C4915482A4603F0C9
:107A980039F81B491248224603F034F8194B1A49A1
:107AA8001A680F4803F02EF8184B19491A680C4841
:107AB80003F028F8174B18491A68094803F022F808
:107AC800164B17491A68064803F01CF8154B04486A
:107AD8001A68154903F016F8FEE700BF2E4601089C
:107AE8000DEE0008444601084D46010856460108B7
:107AF8005F46010868460108724601087B4601088E
:107B08008446010838ED00E08E46010828ED00E0C3
:107B1800994601082CED00E0A446010830ED00E08C
:107B2800AF4601083CED00E0BA460108FEE7FEE773
:107B3800FEE7704706F092BC37B500240E4D684644
:107B4800FFF794FA2B681A59D26800921B596946B4
:107B58009868FFF755FA2B681B5900229868198A0C
:107B6800FFF797FA2B681B590434186AFFF7D8FBFC
:107B7800102CE3D103B030BD106C00202DE9F0418A
:107B88003F4F404D3B788AB0044613B12868FFF751
:107B9800D3FF2C6000242B681B5901215868FFF77C
:107BA8005BFB2B681B590121D869FFF76DFB684601
:107BB800FFF75CFA02238DF804308DF805302B6846
:107BC8001A5952698DF806201A59D26800921B5921
:107BD80069469868FFF714FA2B681B599868198A40
:107BE8001A7EFFF756FA2B681A59D26A03921A5965
:107BF8000026128EADF80820ADF81060ADF80A60C6
:107C08008DF812601B5902A9186AFFF733FC60232C
:107C1800ADF814304FF001082B68ADF816800796C0
:107C28001A59928CADF820204FF48072ADF82420B8
:107C38001B5905A9DA6B186A90472B681B5908214C
:107C48001A6C186A90472B681B594146986AFFF7C7
:107C58004FF82B681B594146186A0434FFF786FD14
:107C6800102C98D12B689B590121186A0436FFF70C
:107C78004BFC102EF6D101233B700AB0BDE8F08111
:107C8800045D0020106C00202DE9F0472DED028BDB
:107C9800032882B005460C4604D93D483D49D12207
:107CA80002F0F2FD3C4B1A6852F8252012789A46E9
:107CB800002A44D107EE104ADFED387ABBEEC87AC5
:107CC80067EE277A17EE900AFCF7BEFB80468946D6
:107CD80008F086F82AA3D3E9002340464946B0EEC7
:107CE800408AFCF705FC42464B46FCF701FC26A3FC
:107CF800D3E9002306460F4640464946FCF7F8FB01
:107D080002460B4630463946FCF740FAFCF78AFE35
:107D180007EE900A87EE880AF7EE007AB4EE670A53
:107D2800F1EE10FAC8BFB0EE670ADFED1D7A20EE5B
:107D3800270ABCEEC00A8DED010ABDF80440DAF846
:107D4800003053F825301A78012A01BF45F208217E
:107D58004C434FF6FF71B4FBF1F104BF01F5A441A8
:107D680008315A6B0BBF186A186A89B2210A02B027
:107D7800BDEC028BBDE8F047104700BFAFF30080B1
:107D88009FE3480CA77144BFBA490C022B87B63F42
:107D9800E0470108F3470108106C0020000070421A
:107DA80000FF7F4703282DE9FF4104468846174610
:107DB8001E4605DD184819494FF4847202F064FD27
:107DC80001A8FFF795FB164DB8F1000F08D0042362
:107DD800144A92FBF7F292B2ADF80430029209E02D
:107DE8002B6853F82420D26A029253F824301B8E51
:107DF800ADF804302B6853F8243001A9186AFFF74E
:107E080039FB2B6853F8243031465A6B186A90476F
:107E180004B0BDE8F08100BFE0470108F34701085E
:107E2800106C00200059000170B50024114B1B682C
:107E380053F824301D78BDB90F4B53F824600F4B0D
:107E4800012133F81420304640F27573FFF7AAFF7A
:107E58003220FDF735FC304629462A462B46FFF7E7
:107E6800A1FF9620FDF72CFC0134042CDED1044B35
:107E7800187870BD106C00200848010850470108A8
:107E8800045D00207320704700B589B0124B1B6851
:107E980068469B68984702460028F7D19DF801304C
:107EA8000E491B0951F8230020B169461346FDF716
:107EB8003FFF03E00A4A1368013313609DF801305D
:107EC800084A1B0952F823100029DFD052F8233042
:107ED80068469847DAE700BF48000020085D0020A0
:107EE800485D0020545D002010B588B00D4B0E4A47
:107EF800196891421C4610D00C4B694618684FF01F
:107F0800FF320023FEF7B0F80128EFD12368684656
:107F18005B6898470028F9D0E8E70A20FDF7D0FB0E
:107F2800E4E700BF4800002034000020505D002036
:107F38007FB5114D2C78ECB9202122463C20FDF765
:107F4800C3FE0E4B0E491860022696222346009661
:107F58000194029403940B48FDF700F92346009618
:107F6800019402940394084808499622FDF7F6F80C
:107F780001232B7004B070BD4C5D0020505D0020C3
:107F880028490108F17E0008917E0008304901085F
:107F9800014B1878704700BF4C5D002038B5094B7D
:107FA80053F8202005461C4622B1074807495C22A1
:107FB80002F06AFC012020210022FDF785FE44F82A
:107FC800250038BD085D0020384901084F490108DF
:107FD80070B50E4B53F8202006460D461C4622B9B4
:107FE8000B480C496C2202F04FFC25B90A48094994
:107FF8006D2202F049FC54F8260029464FF0FF3262
:108008000023BDE87040FEF72FB800BF085D0020D0
:10801800624901084F4901086D68010808B5034B1A
:108028001868FEF727F9C0F13C0008BD505D002034
:108038001028DCBF014B43F820107047545D002026
:1080480010B5044620B90B480B49B72202F01CFCB6
:1080580023781E2B04D909480749B82202F014FCDA
:10806800074B0022186821461346BDE81040FDF76B
:108078005FBE00BF6D6801084F49010871490108DA
:10808800505D002008B5064B00211868FDF7DCFD9F
:10809800044B1B681B6903B19847002008BD00BF4B
:1080A800505D002048000020034B1B68DB6803B1CB
:1080B80018470120704700BF4800002070B5094CE0
:1080C8002368054613B11B68002098470DB1256049
:1080D80001E0054B2360236801201B68BDE8704060
:1080E800184700BF480000203400002038B50C4C69
:1080F8004FF0FF330021054644F8203005F03AFAE6
:10810800084A282303FB0522002352F823100131D3
:1081180002D044F8253038BD01330A2BF5D138BDDB
:10812800605E0020945D00202DE9F74F8046FEF741
:10813800D9FA2C4B1B78002B50D0C5B22A4B53F8D8
:108148002530581C4AD00A2606FB0536DFF8A490CD
:10815800264A59F8264052F823B0254F0021631CBF
:108168000BEBC40A49F8263038680B464FF0FF324B
:10817800FDF77AFFDAF80430991C08D05A1C0AD1A6
:10818800284649F826300024FFF7B0FF1EE00024F7
:1081980049F826401AE01BF83410284605F0EAF999
:1081A800DAF80420002482B12346042100944046D2
:1081B800FEF74CF9FDF70CF90094024623464046B9
:1081C8000121FEF743F9012400E014460021386834
:1081D8000A460B46FDF7ACFD002CAFD003B0BDE856
:1081E800F08F00BF5C5E0020605E002090490108AF
:1081F800885E0020945D002037B51E4B1C781D4614
:10820800ACBB05F0BDF923461B4A4FF0FF3142F8DD
:1082180023101A49282202FB031100224FF0FF30D5
:1082280041F8220001320A2AF8D10133052BEBD19B
:108238000024134B0093134823464FF47A7100220D
:10824800FEF7DCF8104B43F824000134052CF0D17C
:10825800032201200021FDF737FD0C4A106020B1F0
:1082680000210A460B46FDF763FD01232B7003B07E
:1082780030BD00BF5D5E0020605E0020945D002080
:1082880031810008B8490108745E0020885E00202A
:1082980010B5044B1C7805F0A9F9034B01221A709C
:1082A800204010BD5D5E00205C5E0020F8B50546EC
:1082B8000024174B53F824308B4223D1154F00214B
:1082C8000B464FF0FF323868FDF7CEFE0A2303FB5A
:1082D8000543114A0026284642F82360FFF706FFA7
:1082E8003346386831463246FDF722FD0B4B53F8CA
:1082F8002530A3420AD10A4B53F82500BDE8F840BF
:10830800FFF712BF01340A2CD3D1F8BDF8BD00BF66
:1083180090490108885E0020945D0020605E00207E
:10832800745E00204160C2607047000070B5054669
:108338000024144B53F824308B421FD1124E0021D5
:108348000B4630684FF0FF32FDF78EFE0A2303FB21
:1083580005440E4B4FF0FF32284643F82420FFF720
:10836800C5FE002130680B460A46FDF7E1FC084BC4
:1083780053F82500BDE87040FFF7D6BE01340A2C3B
:10838800D7D170BD90490108885E0020945D002017
:10839800745E002008B54FF05F0383F31188BFF3C4
:1083A8006F8FBFF34F8F0649064802F0ABFB0220E0
:1083B800012105F0DFF80420012105F0DBF8FEE7D4
:1083C800C4490108B587000808B54FF05F0383F377
:1083D8001188BFF36F8FBFF34F8F0649064802F02D
:1083E80091FB0220012105F0C5F80420012105F0C8
:1083F800C1F8FEE7D5490108B58700087047012094
:1084080070470000024B1B680BB11B681847704788
:108418008C5E0020024B1B680BB15B6818477047E5
:108428008C5E0020014B1860704700BF8C5E0020F6
:108438001FB5022300930023019302930393044979
:1084480004484FF49672FCF789FE05B05DF804FB0A
:10845800E74901088185000873B5264C2578002D69
:1084680046D10120FDF72CFD234B244E18604FF018
:10847800FF322B462946FDF7F7FDFFF759FD00F0BF
:1084880071F91F491F4802F03DFB1F491D4802F0C2
:1084980039FB1E491E4B0D681E4836781E491A685E
:1084A8001E4B002E18BF01461B6816480191009507
:1084B8001B4902F027FB1B4B1B491B6800931B4BF6
:1084C8001048B3F900300193194B1A68043B1B6834
:1084D80002F018FB09F0DAFB02F080F908F058FC0A
:1084E800FFF78AFE07F050FCFFF788FF012323708F
:1084F80002B070BD915E0020146C0020454E01084A
:10850800FD490108B5870008204A0108E00100205C
:10851800E4010020EE490108F7490108DC010020C8
:10852800474A0108107AFF1F614A0108227AFF1F93
:10853800187AFF1F38B5084B1C78FFF7A9FE0546C7
:1085480007F048FC2840044002F054F90440FFF7C3
:1085580056FF204038BD00BF915E002008B5054B8E
:10856800002118680A460B46FDF7E2FBBDE8084003
:1085780006F086BD146C002038B505F001F800201F
:10858800012104F0F7FF06F077FBFFF765FF0121F3
:10859800022004F0EFFF00F0A3F800F0FDFC01F06A
:1085A800F9FC08F0D1F908F099F900F0A3FC06F0FD
:1085B80079FDFFF7BFFF044609F014FC2040C4B260
:1085C80000F0A8F8044000F007FD044001F016FD93
:1085D800044008F0D7F9044008F0AAF9044000F074
:1085E800ABFC04401F4D06F035FD84B178B1012481
:1085F8002C70FFF7B3FF052008F0A0F904201A49F2
:10860800FFF754FE20461949FFF750FE1CE00023EF
:108618002B70FFF78FFF88B104201449FFF746FE3F
:108628004FF4FA60FDF74CF82B78002BF4D0104982
:10863800104802F067FAFFF791FF05E004F0A0FF89
:108648000420012104F096FFFEF764F90A49024666
:10865800084802F057FA02F0D5F84FF0FF30FDF75E
:108668002FF8FAE7905E0020C40000204C0000209C
:108678008F4A0108B5870008A34A010810B50B4BBB
:108688001B781BB90220FDF71BF8F8E7084C0021FE
:108698000B4620684FF0FF32FDF7E6FC002120680A
:1086A8000A460B46BDE81040FDF742BB915E00202C
:1086B800146C0020014B1870704700BF925E0020B8
:1086C80008B5FCF785FE054A1368C31A502B02D972
:1086D8001060FEF76DFD30BF08BD00BF945E00203E
:1086E80010B50B4C23788BB906F036FE07F0D2FD97
:1086F80007F03AFEFFF7E2FC00F022F908F010F864
:1087080001F088FF00F04EF90123237010BD00BF6F
:10871800985E002038B50B4B1C7807F083FD0546A2
:10872800FFF736FC2840044000F01AF9044008F02E
:1087380007F8044000F034F8044000F079F92040CC
:1087480038BD00BF985E002010B5054C2046FFF7E5
:1087580077FC01284FF000030CBF2370184610BDAA
:10876800186C002038B50B4B1C781D468CB90A4B89
:108778000322012021461C705C70FDF7A5FA074A08
:10878800106020B1214622462346FDF7D1FA012385
:108798002B7038BDA05E0020186C00209C5E002065
:1087A800014B1878704700BFA05E002070B51C4BC5
:1087B8000646187890B31B4D002128684FF0FF3209
:1087C8000B46FDF751FC012827D1174C23781D2BA8
:1087D80004D9FFF723FC012817D109E0E218013377
:1087E800DBB20A2E96702370F3D01E2BF1D00EE068
:1087F800207800231A18002A07DD0C49194422445E
:1088080009799170013B5A1DF4D1FFF79DFF0021B2
:1088180028680A460B46FDF78BFAF0B270BD00BF18
:10882800A05E00209C5E0020186C0020094B010807
:10883800002343608360C3600361074BC362074B37
:1088480080ED000AC0ED050A80ED061AC0ED071A92
:10885800036380ED0D2A704700409C4500409CC58D
:1088680029B1D0ED007A37EEC00A80ED010A90ED0B
:10887800037A90ED016A90ED0D0AD0ED0B7AA6EE21
:10888800007AB4EEE77AF1EE10FA80ED037A06DCAE
:10889800D0ED0C7AB4EEE77AF1EE10FA01D5C0ED1E
:1088A800037AD0ED027AD0ED066A90ED057A80ED74
:1088B800026A76EE677A26EE077AC7EE807A90ED3E
:1088C800030AC0ED047A26EE800AD0ED076A80ED2F
:1088D800090A67EEA67A37EE000A80ED087AC0ED3D
:1088E8000A7A30EE270A704780ED0B0A704700239A
:1088F80043608360C3600361704780ED010A70477D
:1089080080ED000A7047000038B5437813F0030380
:1089180005460FD0012B00D038BD04461E2204F8AE
:10892800022B002120460BF0B2FA204603490BF037
:10893800B6FA2846BDE83840FFF782BB0E4B01085F
:1089480010B5054C23782BB90F200449FFF770FBAD
:108958000123237010BD00BFA15E0020118900080B
:10896800014B1878704700BFA15E002030B50B4B53
:108978001C680B4B00221D681346A34209DA0C2120
:1089880059436956002902DB824205D0013201337E
:10899800F3E74FF0FF3030BD184630BDB45E00201D
:1089A800AC5E0020F0B5184D2C7885B04CBB17484C
:1089B8001749184B184E194F3060091A8A1053433B
:1089C8003B6002F0ADF8164A164B3F6836681168EE
:1089D80018602346BB4207DA0C205843013330564F
:1089E8000028A8BF0131F5E70023012411600E48D3
:1089F80000940193029303930C499622FCF7AEFB73
:108A08002C7005B0F0BD00BFB05E00202C6E0108D0
:108A1800D0720108ABAAAAAAAC5E0020B45E0020FE
:108A2800A45E0020A85E0020358B0008214B0108B9
:108A3800014B1878704700BFB05E00202DE9F04167
:108A480018B101281ED0BDE8F081314B314A324CB3
:108A58001F68136894F803E0304D04330146B942A7
:108A68004BDA13F8046C16F0800F03D0F50705D520
:108A78001D6804E0704513D0013000E0274D013136
:108A88000C33ECE7244B20225A7006221A70244A31
:108A980098701268DA70234A10685860184633E0F4
:108AA800202363700023A3700C231268E0704B43EB
:108AB800D7182846D35C23710BF0F9F92946421CD4
:108AC80019480BF0D9F928460BF0F1F9D7F80480CA
:108AD800064640460BF0EBF92644421C4146B01DC1
:108AE8000BF0CAF928460BF0E2F9054678680BF056
:108AF800DEF928440530207005E020236370002348
:108B0800A370012323700448BDE8F041FFF798BA29
:108B1800B45E0020AC5E0020386C0020D449010807
:108B2800A45E0020A85E00203D6C00202DE9F74FD0
:108B38000220FFF733FA804C02202146FFF748FA5B
:108B48006678A57816F00306274603D12846FFF76E
:108B580075FFF0E7012E30D12846FFF707FF002800
:108B680005DAFF23A3700223E570237130E00C239C
:108B78005843724B1B681A5C191802F00302022A48
:108B88008B680CD0032A0FD0012A15BF1B781B88CD
:108B9800E370A4F8033014BF022303230BE01B681F
:108BA800C4F80330052306E01A68C4F803205A689D
:108BB800C4F80720092323702EE0022E2ED1284660
:108BC800FFF7D4FE002807DAFF23A370E5702671AB
:108BD8000323237020469CE00C235843574B1B6803
:108BE8001A181B5C5906A6D403F00303022B9268DB
:108BF80009D0032B0BD0012B15BFE378B4F8033051
:108C08001370138008E0D4F80330136004E054F8BC
:108C1800031F636882E80A0047487AE0002D8AD17A
:108C28002B46FA18927802B9013501331E2BF8D178
:108C3800012D7EDD42480BF03AF907EB000808F1F8
:108C48000408814640460BF032F900EB0903009313
:108C5800FB18DFF8F8905E793A4B1B680193374BA5
:108C6800D3F800A04FF0000B5546019B9B4518DA3E
:108C780029780A0604D5CB070DD5D5F804900CE061
:108C880068684146FCF7F0F938B948462C49FCF7C2
:108C9800EBF910B907E0DFF8B4900BF1010B0C35D4
:108CA800E3E7022520E00C2303FB0BF30AEB0302A6
:108CB8001AF803309E423AD106F0400303F0FF054C
:108CC800002B32D1009B9168043306F003063B4425
:108CD800022E03F102001FD0032E21D0012E15BF52
:108CE8009B785B880B700B8015480BF0E0F8064604
:108CF80040460BF0DCF837443844457110480BF017
:108D0800D6F8054640460BF0D2F8284404302070C7
:108D18000D48FFF795F90EE7D3F802300B60E3E74B
:108D2800D0E90023C1E90023DEE70D25DCE716259D
:108D3800DAE703B0BDE8F08F386C0020AC5E0020A5
:108D48003B6C0020B45E0020386C0020D449010838
:108D580007B50420FFF722F9604C04202146FFF7ED
:108D680037F9627802F00302012A23464CD0022A1E
:108D780000F08280002AEFD1A378012B02D0022BC9
:108D88000BD0E9E7A370564B40221B786270022291
:108D980013442270E37020469CE0E0782370402260
:108DA8006270A37020B920714E4B41F6FF7205E046
:108DB800012810D1102323714A4B12221A604A4A03
:108DC80018681368C4F809305368C4F80D30C4F83B
:108DD80005000F237CE0454D0238C0B2294607F054
:108DE8006DFB002875D03F4A70210123116010687F
:108DF80023712A682378C4F809206A68C4F8050032
:108E0800C4F80D200D3363E0D4F80300A278019074
:108E180041216170E579019962B96A18B2F5005F7C
:108E280020D204F1080089B22A4605F011FEC8B123
:108E3800002318E0012A0AD16A18122A12D82C4BEA
:108E480004F1080019442A460BF016F8EFE76818F1
:108E5800702807D8901E89B22A460833C0B207F096
:108E680059FBE4E705231D4AE37113B9063515706C
:108E78002FE0062313702CE0D4F803002278019029
:108E88004221053A6170A5780199D2B2501845B9C6
:108E9800B0F5005F19D2E01D89B205F0F1FDA0B16F
:108EA80008E0012D08D1122804D811480844E11D12
:108EB8000AF0E2FF002309E0702806D8A81E89B24C
:108EC8000733C0B207F08AFBE9E70523E3710623FD
:108ED80023700248FFF7B4F83EE700BFC05E0020E9
:108EE800E55E0020E05E00202B4B0108B85E002004
:108EF8006078002030B50C4D2C7885B08CB90B48C3
:108F080007F0BAFA003018BF0120012328708DE855
:108F18001800029403940648064996222346FCF753
:108F28001DF905B030BD00BFE45E0020E55E0020FD
:108F3800598D0008274B0108014B1878704700BF6E
:108F4800E45E002070B5104C10492368B3FA83F32F
:108F58000E225B09851C02FB03120E3055F8046BC8
:108F680042F8046B8542F9D1288810800E222360CC
:108F780002FB03139B890BB9054A1370FCF728FA07
:108F8800044B186070BD00BFE85E0020EC5E002056
:108F98000B5F0020105F002010B50A4C23787BB9C6
:108FA800FEF7C6FF03200849FFF742F8FCF710FA5E
:108FB800064B074A186001231370064A2370137082
:108FC80010BD00BF0C5F00204D8F0008105F00200F
:108FD800085F00200B5F002008B5FEF7D9FF014BA2
:108FE800187808BD0C5F002070B5114B114C1E6835
:108FF800FCF7EEF9104B1B68C01AB0F5FA7F14D9CC
:109008000E4D0E2303FB06F2A9180023B0F5FA6FE4
:10901800AB504B608B6008D9094A0B731370094A2F
:109028004B7301232370137070BD0023237070BD30
:10903800E85E0020085F0020105F0020EC5E002042
:10904800E65E00200B5F002008B5FCF7C1F9024B73
:109058001B68C01A08BD00BF105F002030B5064B62
:109068001C68064B0E2505FB04331C680460586811
:1090780008609B68136030BDE85E0020EC5E00204D
:1090880030B5144B1C7804701348057804460DB9A4
:10909800187800E0002000F001000870197889B104
:1090A8000E499FED0F7A08680E490E2505FB001141
:1090B800898907EE901AF8EE677A77EEC77AC7EED5
:1090C800877A01E0DFED087AC2ED007A1B78237019
:1090D80030BD00BFE65E0020095F0020E85E00208A
:1090E80000FEFF46EC5E002000000000044B1B78E9
:1090F8000370044B1B780B70034B1B78137070477D
:109108008D0100208E0100200A5F00200B4B1A6899
:109118000B4B0E2101FB023399890A4B1B780BB1CB
:10912800002307E0B1F57A7FFAD94EF66023994219
:1091380098BF0B460380FFF757BF00BFE85E0020CB
:10914800EC5E00200B5F0020014B1878704700BFD1
:109158008C010020014B1878704700BF145F002075
:1091680010B5394C2378002B6DD19FED380A38485B
:10917800DFED380A9FED382AB0EE401AF0EE401ABB
:10918800FFF756FB9FED310A3448DFED320A9FEDB9
:10919800322AB0EE401AF0EE401AFFF749FB9FED75
:1091A8002B0ADFED2C0A9FED2E1A9FED2B2A2D4856
:1091B800F0EE401AFFF73CFB25489FED2B0AFFF71E
:1091C80093FB26489FED280AFFF78EFB25489FED65
:1091D800270AFFF789FB9FED1D0A25489FED1E2AE8
:1091E800F0EE401AF0EE0C0AB0EE001AFFF720FB82
:1091F8009FED160A1F489FED182AF0EE401AF0EE70
:109208000C0AB0EE001AFFF713FBF2EE040AB7EEF1
:10921800001ADFED191A9FED102A18489FED0B0A66
:10922800FFF706FB1248B3EE040AFFF75DFB11488F
:10923800B3EE040AFFF758FB10489FED110AFFF739
:1092480053FB0123237010BD155F002000000000B0
:10925800406D002000008C426F12033BD06C002050
:109268009A998541946C00203333054233B32643E1
:10927800586C0020086D00203333B33E786D002011
:109288000000B443014B1878704700BF155F0020F9
:1092980000B52DED068B4048B0EE408A83B0B0EEA5
:1092A800610AF0EE609AF0EE418AB0EE42AAB0EEA2
:1092B800629AFFF725FBB0EE480A37489FED378AD8
:1092C8000121FFF7CDFAB4EEC80AF1EE10FA0DDC71
:1092D800DFED337AB4EEE70AF1EE10FA09D4BDEE09
:1092E800C00A8DED010ABDF8043004E047F6FF73AB
:1092F80001E048F201032B4A2B481380B0EE4A0ADA
:10930800FFF7FEFA2848B0EE690A0121FFF7A8FA2C
:10931800B4EEC80AF1EE10FA0DDCDFED217AB4EEF6
:10932800E70AF1EE10FA09D4BDEEC00A8DED010A84
:10933800BDF8043004E047F6FF7301E048F201038A
:109348001A4A1B481380B0EE490AFFF7D9FA1848A1
:10935800B0EE680A0121FFF783FAB4EEC80AF1EE0D
:1093680010FA0DDCDFED0E7AB4EEE70AF1EE10FA32
:1093780009D4BDEEC00A8DED010ABDF8043004E041
:1093880047F6FF7301E048F201030A4A138003B06D
:10939800BDEC068B5DF804FB406D002000FEFF4627
:1093A80000FEFFC6CC6C0020D06C0020926C002020
:1093B800946C0020906C002070B506462DED068B4D
:1093C8002648B0EE40AAB0EE610AB0EE609AF0EE20
:1093D800418AF0EE429AB0EE628A14460D46FFF7D3
:1093E8008FFA01211D48B0EE4A0AFFF739FA1C48E6
:1093F80086ED000AB0EE690AFFF782FA1848B0EE67
:10940800490A0121FFF72CFADFED167A85ED000AEB
:1094180038EE680AB4EEE70AF1EE10FA04DDDFED83
:10942800127A30EE670A0AE0DFED107AB4EEE70A46
:10943800F1EE10FA44BFDFED0C7A30EE270A0C4843
:10944800FFF75BFAB0EE680A09480021FFF708FA4F
:10945800BDEC068B84ED000A70BD00BF586C00207F
:10946800086D0020000034430000B443000034C3FA
:10947800786D002008B50A48FFF739FA0948FFF760
:1094880036FA0948FFF733FA0848FFF730FA084870
:10949800FFF72DFA0748BDE80840FFF728BA00BFD4
:1094A800586C0020086D0020786D0020406D002069
:1094B800D06C0020946C0020044B1B880380044B64
:1094C8001B880B80034B1B8813807047CC6C0020D3
:1094D800926C0020906C0020024B1A780AB9012285
:1094E8001A7070471C5F0020014B1878704700BF46
:1094F8001C5F0020DFED817A9FED817A8148824AE6
:10950800824920EE270A60EEA70A21EE271AF5EE17
:10951800401AF1EE10FAF0B580EE070A7C4C80EEA6
:10952800875A81EE071AF6EE004AF7EE087A09D153
:10953800B5EE402AF1EE10FA04D1F5EE402AF1EE2C
:1095480010FA7CD062EE026A94ED004AD1ED005A1E
:10955800704F714EE1EEA16A0025E2EEA26A16EEA6
:10956800903A5B10C3F1BE4303F55D1303F5CE5388
:109578001F3307EE103A66EEA46A06EE103A67EE5D
:10958800666AB0EE677AA6EE867A644BD0ED006A1A
:1095980026EE077A25EEC46A61EE871A22EE072ABC
:1095A80062EE872A92ED007A65EE875AA6EE876A00
:1095B800E4EE265AFEEE006AE4EE046A25EEE24A7C
:1095C800E7EE076A93ED007A554BA2EE264AB5EE10
:1095D800C07A66EEE16A26EE422AF1EE10FAE2EE71
:1095E800866AA1EEA52A1EDD27EE046AD7ED003AA9
:1095F800D6ED005AE6EE033A27EE266A27EE027AFF
:10960800E6EE035A93ED006AC7ED003AA7EE036A47
:10961800C6ED005A83ED006A30EE230A35EE255A6E
:1096280031EE061A02E03D6035601D603D4B93ED5A
:10963800007AA7EE040AA7EE265AA7EE021A23EE2E
:10964800243A91ED004AD4ED003A92ED007A21EEE9
:10965800031A20EE030A24EE016A65EE030AA3EE5C
:10966800806A90ED005A60EEC45AF1EE476AE5EE62
:10967800405AA6EEA06AE6EE815A35EE066A61EE19
:10968800456A25EE205AE3EEA06AA3EE815A73EEEE
:10969800A55AA4EE405AE7EE006A37EE055A26EEC0
:1096A800067A74EE266AA5EEA57AA6EEA67AA5EE47
:1096B800057A17EE103A5B10C3F1BE4303F55D134C
:1096C80003F5CE531F3327EE247A04EE903A24EEA6
:1096D800C77AE7EE247A64EEA77A65EEA75A26EEF3
:1096E800276A66EEA76A25EE275AC4ED005A80ED70
:1096F800006AC1ED006A82ED005AF0BDDB0F4940F7
:1097080000003443205F0020285F0020245F0020F1
:10971800900100202C5F0020305F00209401002081
:10972800185F00209801002070B52DED068B364B90
:10973800D3ED007A354BD3ED006A354B93ED006AD3
:10974800344B93ED000A20EE267A20EE468AA6EEE8
:10975800277A04460D46A7EEA68A164677EE079A9C
:1097680027EEA75A26EE067A38EE088A60EE005AE7
:1097780037EE459AF7EE004A66EEA60A39EE659A84
:10978800B4EEE48AF1EE10FA39EE209A09DCFFEE25
:10979800004AB4EE648AF1EE10FA48BFB0EE648A6B
:1097A80001E0B0EE648A27EE800A37EE057AA6EE6D
:1097B800260A37EE657A30EE000A77EE600A08F07E
:1097C80045FDDFED158A9FED15AA20EE280A80EEEB
:1097D8000A0A86ED000AB0EE480A08F0D9FC20EE25
:1097E800280AF0EE490A80EE0A0A85ED000AB0EE72
:1097F800690A08F02BFD20EE280A80EE0A0ABDEC63
:10980800068B84ED000A70BD205F0020285F0020D1
:1098180090010020245F002000003443DB0F494002
:10982800164B93ED007A164B93ED006A154B93EDAA
:10983800005A154BD3ED005A65EE867A65EEC56A77
:10984800E5EE077AE7EE066A27EE477A77EEA77A1B
:10985800A5EE057A60EEA70AA5EEE57A76EEA66A89
:10986800F0EE607AE0EE267AA6EE067AB7EE000A07
:10987800E1EE077A37EEC00A704700BF205F00208C
:10988800285F002090010020245F0020F0EEC07ABD
:10989800F4EEE07AF1EE10FA0BD4B5EEC00AF1EE70
:1098A80010FA02DD30EE600A704704D530EE200A67
:1098B80070479FED010A7047000000002DE9F04154
:1098C8004E10851B5210AC181C444FF6FF7724EA43
:1098D800E474BC421B49DFF87880A5EB0205A8BFF9
:1098E8003C460644ED1A0C6025EAE575B11ABD42FE
:1098F800D4BFC8F80050C8F800703244124D134E57
:10990800194421EAE171D31A23EAE373B942D4BFB7
:1099180029602F600020A1B2BB42D4BF33603760FA
:10992800FEF7B2F9B8F800100120FEF7ADF9298862
:109938000220FEF7A9F931880320BDE8F041FEF7BF
:10994800A3B900BFC46D0020B06D0020BC6D00201D
:10995800B86D00202DE9F04F2DED068B002085B065
:109968000321FBF7EDFEFEF789FE04208049DFEDB9
:10997800818AFEF79BFCFBF72BFD4FF00008039054
:109988004546B0EE689A03A80221FBF737FE7A48ED
:109998007A497B4A06F098F906F090F90028F2D047
:1099A800DFF83092774878494A46FFF757FB0DF1C0
:1099B80009000DF10A010DF10B02FFF797FB9DF865
:1099C8000B309BBB18EE900AFAF73EFD0646D9F815
:1099D80000000F46FAF738FD00226C4BFAF7B2FE8A
:1099E80002460B4630463946FAF7CEFBFBF71AF823
:1099F80008EE900ADFED667AF4EEE78AF1EE10FAE7
:109A080004DDDFED647A78EEE78AF3E7DFED627A6A
:109A1800F4EEE78AF1EE10FA04D5DFED5E7A78EE1F
:109A2800A78AF3E7F1EE687AC9ED007A524C002D67
:109A380000F0D280514D9FED598A594FD5ED001A4B
:109A480095ED012AD5ED022A94ED000AD4ED010A1C
:109A580094ED021A4B4EB0EE483AFFF74BFD5148D1
:109A680051493A46FFF760FE95ED021AD5ED010A15
:109A780095ED000AFFF7D4FED5ED017AD5ED006A21
:109A880095ED027A494B404D83ED000A67EEA77ABF
:109A9800474BE6EEA67AE7EE077AC3ED007A454B28
:109AA800D3ED000AFFF7F2FE434BD3ED007AE0EE68
:109AB800087AC3ED007AFFF747FBA0B1012840D12F
:109AC8009FED3E7AD5ED007AD6ED006A67EE877A8B
